{
	"variables_nativas.sol": {
		"variables_nativas": {
			"abi": [
				{
					"inputs": [
						{
							"internalType": "string",
							"name": "_lastName",
							"type": "string"
						}
					],
					"stateMutability": "nonpayable",
					"type": "constructor"
				},
				{
					"inputs": [],
					"name": "getName",
					"outputs": [
						{
							"internalType": "string",
							"name": "",
							"type": "string"
						}
					],
					"stateMutability": "view",
					"type": "function"
				},
				{
					"inputs": [],
					"name": "int_8",
					"outputs": [
						{
							"internalType": "int8",
							"name": "",
							"type": "int8"
						}
					],
					"stateMutability": "view",
					"type": "function"
				},
				{
					"inputs": [],
					"name": "my_address",
					"outputs": [
						{
							"internalType": "address",
							"name": "",
							"type": "address"
						}
					],
					"stateMutability": "view",
					"type": "function"
				},
				{
					"inputs": [],
					"name": "uint_16",
					"outputs": [
						{
							"internalType": "uint16",
							"name": "",
							"type": "uint16"
						}
					],
					"stateMutability": "view",
					"type": "function"
				},
				{
					"inputs": [],
					"name": "uint_8",
					"outputs": [
						{
							"internalType": "uint8",
							"name": "",
							"type": "uint8"
						}
					],
					"stateMutability": "view",
					"type": "function"
				}
			],
			"devdoc": {
				"kind": "dev",
				"methods": {},
				"version": 1
			},
			"evm": {
				"assembly": "    /* \"variables_nativas.sol\":60:815  contract variables_nativas {... */\n  mstore(0x40, 0x80)\n    /* \"variables_nativas.sol\":570:571  1 */\n  0x01\n    /* \"variables_nativas.sol\":548:571  uint8 public uint_8 = 1 */\n  dup1\n  exp(0x0100, 0x00)\n  dup2\n  sload\n  dup2\n  0xff\n  mul\n  not\n  and\n  swap1\n  dup4\n  0xff\n  and\n  mul\n  or\n  swap1\n  sstore\n  pop\n    /* \"variables_nativas.sol\":602:605  123 */\n  0x7b\n    /* \"variables_nativas.sol\":578:605  uint16 public uint_16 = 123 */\n  0x01\n  dup1\n  0x0100\n  exp\n  dup2\n  sload\n  dup2\n  0xffff\n  mul\n  not\n  and\n  swap1\n  dup4\n  0xffff\n  and\n  mul\n  or\n  swap1\n  sstore\n  pop\n    /* \"variables_nativas.sol\":678:680  -1 */\n  0xffffffffffffffffffffffffffffffffffffffffffffffffffffffffffffffff\n    /* \"variables_nativas.sol\":658:680  int8 public int_8 = -1 */\n  0x01\n  exp(0x0100, 0x03)\n  dup2\n  sload\n  dup2\n  0xff\n  mul\n  not\n  and\n  swap1\n  dup4\n  0x00\n  signextend\n  0xff\n  and\n  mul\n  or\n  swap1\n  sstore\n  pop\n    /* \"variables_nativas.sol\":763:805  0x014ED7B4735F042Decd0167D9c30eec780AE0D3b */\n  0x014ed7b4735f042decd0167d9c30eec780ae0d3b\n    /* \"variables_nativas.sol\":735:805  address public my_address = 0x014ED7B4735F042Decd0167D9c30eec780AE0D3b */\n  0x01\n  exp(0x0100, 0x04)\n  dup2\n  sload\n  dup2\n  0xffffffffffffffffffffffffffffffffffffffff\n  mul\n  not\n  and\n  swap1\n  dup4\n  0xffffffffffffffffffffffffffffffffffffffff\n  and\n  mul\n  or\n  swap1\n  sstore\n  pop\n    /* \"variables_nativas.sol\":180:292  constructor(string memory _lastName) {... */\n  callvalue\n  dup1\n  iszero\n  tag_1\n  jumpi\n  0x00\n  dup1\n  revert\ntag_1:\n  pop\n  mload(0x40)\n  sub(codesize, bytecodeSize)\n  dup1\n  bytecodeSize\n  dup4\n  codecopy\n  dup2\n  dup2\n  add\n  0x40\n  mstore\n  dup2\n  add\n  swap1\n  tag_2\n  swap2\n  swap1\n  tag_3\n  jump\t// in\ntag_2:\n    /* \"variables_nativas.sol\":274:283  _lastName */\n  dup1\n    /* \"variables_nativas.sol\":239:284  string.concat(\"Mi nombre es:\", \"\", _lastName) */\n  add(0x20, mload(0x40))\n  tag_6\n  swap2\n  swap1\n  tag_7\n  jump\t// in\ntag_6:\n  mload(0x40)\n  0x20\n  dup2\n  dup4\n  sub\n  sub\n  dup2\n  mstore\n  swap1\n  0x40\n  mstore\n    /* \"variables_nativas.sol\":228:236  fullName */\n  0x00\n    /* \"variables_nativas.sol\":228:284  fullName = string.concat(\"Mi nombre es:\", \"\", _lastName) */\n  swap1\n  dup2\n  tag_8\n  swap2\n  swap1\n  tag_9\n  jump\t// in\ntag_8:\n  pop\n    /* \"variables_nativas.sol\":180:292  constructor(string memory _lastName) {... */\n  pop\n    /* \"variables_nativas.sol\":60:815  contract variables_nativas {... */\n  jump(tag_10)\n    /* \"#utility.yul\":7:82   */\ntag_11:\n    /* \"#utility.yul\":40:46   */\n  0x00\n    /* \"#utility.yul\":73:75   */\n  0x40\n    /* \"#utility.yul\":67:76   */\n  mload\n    /* \"#utility.yul\":57:76   */\n  swap1\n  pop\n    /* \"#utility.yul\":7:82   */\n  swap1\n  jump\t// out\n    /* \"#utility.yul\":88:205   */\ntag_12:\n    /* \"#utility.yul\":197:198   */\n  0x00\n    /* \"#utility.yul\":194:195   */\n  dup1\n    /* \"#utility.yul\":187:199   */\n  revert\n    /* \"#utility.yul\":211:328   */\ntag_13:\n    /* \"#utility.yul\":320:321   */\n  0x00\n    /* \"#utility.yul\":317:318   */\n  dup1\n    /* \"#utility.yul\":310:322   */\n  revert\n    /* \"#utility.yul\":334:451   */\ntag_14:\n    /* \"#utility.yul\":443:444   */\n  0x00\n    /* \"#utility.yul\":440:441   */\n  dup1\n    /* \"#utility.yul\":433:445   */\n  revert\n    /* \"#utility.yul\":457:574   */\ntag_15:\n    /* \"#utility.yul\":566:567   */\n  0x00\n    /* \"#utility.yul\":563:564   */\n  dup1\n    /* \"#utility.yul\":556:568   */\n  revert\n    /* \"#utility.yul\":580:682   */\ntag_16:\n    /* \"#utility.yul\":621:627   */\n  0x00\n    /* \"#utility.yul\":672:674   */\n  0x1f\n    /* \"#utility.yul\":668:675   */\n  not\n    /* \"#utility.yul\":663:665   */\n  0x1f\n    /* \"#utility.yul\":656:661   */\n  dup4\n    /* \"#utility.yul\":652:666   */\n  add\n    /* \"#utility.yul\":648:676   */\n  and\n    /* \"#utility.yul\":638:676   */\n  swap1\n  pop\n    /* \"#utility.yul\":580:682   */\n  swap2\n  swap1\n  pop\n  jump\t// out\n    /* \"#utility.yul\":688:868   */\ntag_17:\n    /* \"#utility.yul\":736:813   */\n  0x4e487b7100000000000000000000000000000000000000000000000000000000\n    /* \"#utility.yul\":733:734   */\n  0x00\n    /* \"#utility.yul\":726:814   */\n  mstore\n    /* \"#utility.yul\":833:837   */\n  0x41\n    /* \"#utility.yul\":830:831   */\n  0x04\n    /* \"#utility.yul\":823:838   */\n  mstore\n    /* \"#utility.yul\":857:861   */\n  0x24\n    /* \"#utility.yul\":854:855   */\n  0x00\n    /* \"#utility.yul\":847:862   */\n  revert\n    /* \"#utility.yul\":874:1155   */\ntag_18:\n    /* \"#utility.yul\":957:984   */\n  tag_57\n    /* \"#utility.yul\":979:983   */\n  dup3\n    /* \"#utility.yul\":957:984   */\n  tag_16\n  jump\t// in\ntag_57:\n    /* \"#utility.yul\":949:955   */\n  dup2\n    /* \"#utility.yul\":945:985   */\n  add\n    /* \"#utility.yul\":1087:1093   */\n  dup2\n    /* \"#utility.yul\":1075:1085   */\n  dup2\n    /* \"#utility.yul\":1072:1094   */\n  lt\n    /* \"#utility.yul\":1051:1069   */\n  0xffffffffffffffff\n    /* \"#utility.yul\":1039:1049   */\n  dup3\n    /* \"#utility.yul\":1036:1070   */\n  gt\n    /* \"#utility.yul\":1033:1095   */\n  or\n    /* \"#utility.yul\":1030:1118   */\n  iszero\n  tag_58\n  jumpi\n    /* \"#utility.yul\":1098:1116   */\n  tag_59\n  tag_17\n  jump\t// in\ntag_59:\n    /* \"#utility.yul\":1030:1118   */\ntag_58:\n    /* \"#utility.yul\":1138:1148   */\n  dup1\n    /* \"#utility.yul\":1134:1136   */\n  0x40\n    /* \"#utility.yul\":1127:1149   */\n  mstore\n    /* \"#utility.yul\":917:1155   */\n  pop\n    /* \"#utility.yul\":874:1155   */\n  pop\n  pop\n  jump\t// out\n    /* \"#utility.yul\":1161:1290   */\ntag_19:\n    /* \"#utility.yul\":1195:1201   */\n  0x00\n    /* \"#utility.yul\":1222:1242   */\n  tag_61\n  tag_11\n  jump\t// in\ntag_61:\n    /* \"#utility.yul\":1212:1242   */\n  swap1\n  pop\n    /* \"#utility.yul\":1251:1284   */\n  tag_62\n    /* \"#utility.yul\":1279:1283   */\n  dup3\n    /* \"#utility.yul\":1271:1277   */\n  dup3\n    /* \"#utility.yul\":1251:1284   */\n  tag_18\n  jump\t// in\ntag_62:\n    /* \"#utility.yul\":1161:1290   */\n  swap2\n  swap1\n  pop\n  jump\t// out\n    /* \"#utility.yul\":1296:1604   */\ntag_20:\n    /* \"#utility.yul\":1358:1362   */\n  0x00\n    /* \"#utility.yul\":1448:1466   */\n  0xffffffffffffffff\n    /* \"#utility.yul\":1440:1446   */\n  dup3\n    /* \"#utility.yul\":1437:1467   */\n  gt\n    /* \"#utility.yul\":1434:1490   */\n  iszero\n  tag_64\n  jumpi\n    /* \"#utility.yul\":1470:1488   */\n  tag_65\n  tag_17\n  jump\t// in\ntag_65:\n    /* \"#utility.yul\":1434:1490   */\ntag_64:\n    /* \"#utility.yul\":1508:1537   */\n  tag_66\n    /* \"#utility.yul\":1530:1536   */\n  dup3\n    /* \"#utility.yul\":1508:1537   */\n  tag_16\n  jump\t// in\ntag_66:\n    /* \"#utility.yul\":1500:1537   */\n  swap1\n  pop\n    /* \"#utility.yul\":1592:1596   */\n  0x20\n    /* \"#utility.yul\":1586:1590   */\n  dup2\n    /* \"#utility.yul\":1582:1597   */\n  add\n    /* \"#utility.yul\":1574:1597   */\n  swap1\n  pop\n    /* \"#utility.yul\":1296:1604   */\n  swap2\n  swap1\n  pop\n  jump\t// out\n    /* \"#utility.yul\":1610:1856   */\ntag_21:\n    /* \"#utility.yul\":1691:1692   */\n  0x00\n    /* \"#utility.yul\":1701:1814   */\ntag_68:\n    /* \"#utility.yul\":1715:1721   */\n  dup4\n    /* \"#utility.yul\":1712:1713   */\n  dup2\n    /* \"#utility.yul\":1709:1722   */\n  lt\n    /* \"#utility.yul\":1701:1814   */\n  iszero\n  tag_70\n  jumpi\n    /* \"#utility.yul\":1800:1801   */\n  dup1\n    /* \"#utility.yul\":1795:1798   */\n  dup3\n    /* \"#utility.yul\":1791:1802   */\n  add\n    /* \"#utility.yul\":1785:1803   */\n  mload\n    /* \"#utility.yul\":1781:1782   */\n  dup2\n    /* \"#utility.yul\":1776:1779   */\n  dup5\n    /* \"#utility.yul\":1772:1783   */\n  add\n    /* \"#utility.yul\":1765:1804   */\n  mstore\n    /* \"#utility.yul\":1737:1739   */\n  0x20\n    /* \"#utility.yul\":1734:1735   */\n  dup2\n    /* \"#utility.yul\":1730:1740   */\n  add\n    /* \"#utility.yul\":1725:1740   */\n  swap1\n  pop\n    /* \"#utility.yul\":1701:1814   */\n  jump(tag_68)\ntag_70:\n    /* \"#utility.yul\":1848:1849   */\n  0x00\n    /* \"#utility.yul\":1839:1845   */\n  dup5\n    /* \"#utility.yul\":1834:1837   */\n  dup5\n    /* \"#utility.yul\":1830:1846   */\n  add\n    /* \"#utility.yul\":1823:1850   */\n  mstore\n    /* \"#utility.yul\":1672:1856   */\n  pop\n    /* \"#utility.yul\":1610:1856   */\n  pop\n  pop\n  pop\n  jump\t// out\n    /* \"#utility.yul\":1862:2296   */\ntag_22:\n    /* \"#utility.yul\":1951:1956   */\n  0x00\n    /* \"#utility.yul\":1976:2042   */\n  tag_72\n    /* \"#utility.yul\":1992:2041   */\n  tag_73\n    /* \"#utility.yul\":2034:2040   */\n  dup5\n    /* \"#utility.yul\":1992:2041   */\n  tag_20\n  jump\t// in\ntag_73:\n    /* \"#utility.yul\":1976:2042   */\n  tag_19\n  jump\t// in\ntag_72:\n    /* \"#utility.yul\":1967:2042   */\n  swap1\n  pop\n    /* \"#utility.yul\":2065:2071   */\n  dup3\n    /* \"#utility.yul\":2058:2063   */\n  dup2\n    /* \"#utility.yul\":2051:2072   */\n  mstore\n    /* \"#utility.yul\":2103:2107   */\n  0x20\n    /* \"#utility.yul\":2096:2101   */\n  dup2\n    /* \"#utility.yul\":2092:2108   */\n  add\n    /* \"#utility.yul\":2141:2144   */\n  dup5\n    /* \"#utility.yul\":2132:2138   */\n  dup5\n    /* \"#utility.yul\":2127:2130   */\n  dup5\n    /* \"#utility.yul\":2123:2139   */\n  add\n    /* \"#utility.yul\":2120:2145   */\n  gt\n    /* \"#utility.yul\":2117:2229   */\n  iszero\n  tag_74\n  jumpi\n    /* \"#utility.yul\":2148:2227   */\n  tag_75\n  tag_15\n  jump\t// in\ntag_75:\n    /* \"#utility.yul\":2117:2229   */\ntag_74:\n    /* \"#utility.yul\":2238:2290   */\n  tag_76\n    /* \"#utility.yul\":2283:2289   */\n  dup5\n    /* \"#utility.yul\":2278:2281   */\n  dup3\n    /* \"#utility.yul\":2273:2276   */\n  dup6\n    /* \"#utility.yul\":2238:2290   */\n  tag_21\n  jump\t// in\ntag_76:\n    /* \"#utility.yul\":1957:2296   */\n  pop\n    /* \"#utility.yul\":1862:2296   */\n  swap4\n  swap3\n  pop\n  pop\n  pop\n  jump\t// out\n    /* \"#utility.yul\":2316:2671   */\ntag_23:\n    /* \"#utility.yul\":2383:2388   */\n  0x00\n    /* \"#utility.yul\":2432:2435   */\n  dup3\n    /* \"#utility.yul\":2425:2429   */\n  0x1f\n    /* \"#utility.yul\":2417:2423   */\n  dup4\n    /* \"#utility.yul\":2413:2430   */\n  add\n    /* \"#utility.yul\":2409:2436   */\n  slt\n    /* \"#utility.yul\":2399:2521   */\n  tag_78\n  jumpi\n    /* \"#utility.yul\":2440:2519   */\n  tag_79\n  tag_14\n  jump\t// in\ntag_79:\n    /* \"#utility.yul\":2399:2521   */\ntag_78:\n    /* \"#utility.yul\":2550:2556   */\n  dup2\n    /* \"#utility.yul\":2544:2557   */\n  mload\n    /* \"#utility.yul\":2575:2665   */\n  tag_80\n    /* \"#utility.yul\":2661:2664   */\n  dup5\n    /* \"#utility.yul\":2653:2659   */\n  dup3\n    /* \"#utility.yul\":2646:2650   */\n  0x20\n    /* \"#utility.yul\":2638:2644   */\n  dup7\n    /* \"#utility.yul\":2634:2651   */\n  add\n    /* \"#utility.yul\":2575:2665   */\n  tag_22\n  jump\t// in\ntag_80:\n    /* \"#utility.yul\":2566:2665   */\n  swap2\n  pop\n    /* \"#utility.yul\":2389:2671   */\n  pop\n    /* \"#utility.yul\":2316:2671   */\n  swap3\n  swap2\n  pop\n  pop\n  jump\t// out\n    /* \"#utility.yul\":2677:3201   */\ntag_3:\n    /* \"#utility.yul\":2757:2763   */\n  0x00\n    /* \"#utility.yul\":2806:2808   */\n  0x20\n    /* \"#utility.yul\":2794:2803   */\n  dup3\n    /* \"#utility.yul\":2785:2792   */\n  dup5\n    /* \"#utility.yul\":2781:2804   */\n  sub\n    /* \"#utility.yul\":2777:2809   */\n  slt\n    /* \"#utility.yul\":2774:2893   */\n  iszero\n  tag_82\n  jumpi\n    /* \"#utility.yul\":2812:2891   */\n  tag_83\n  tag_12\n  jump\t// in\ntag_83:\n    /* \"#utility.yul\":2774:2893   */\ntag_82:\n    /* \"#utility.yul\":2953:2954   */\n  0x00\n    /* \"#utility.yul\":2942:2951   */\n  dup3\n    /* \"#utility.yul\":2938:2955   */\n  add\n    /* \"#utility.yul\":2932:2956   */\n  mload\n    /* \"#utility.yul\":2983:3001   */\n  0xffffffffffffffff\n    /* \"#utility.yul\":2975:2981   */\n  dup2\n    /* \"#utility.yul\":2972:3002   */\n  gt\n    /* \"#utility.yul\":2969:3086   */\n  iszero\n  tag_84\n  jumpi\n    /* \"#utility.yul\":3005:3084   */\n  tag_85\n  tag_13\n  jump\t// in\ntag_85:\n    /* \"#utility.yul\":2969:3086   */\ntag_84:\n    /* \"#utility.yul\":3110:3184   */\n  tag_86\n    /* \"#utility.yul\":3176:3183   */\n  dup5\n    /* \"#utility.yul\":3167:3173   */\n  dup3\n    /* \"#utility.yul\":3156:3165   */\n  dup6\n    /* \"#utility.yul\":3152:3174   */\n  add\n    /* \"#utility.yul\":3110:3184   */\n  tag_23\n  jump\t// in\ntag_86:\n    /* \"#utility.yul\":3100:3184   */\n  swap2\n  pop\n    /* \"#utility.yul\":2903:3194   */\n  pop\n    /* \"#utility.yul\":2677:3201   */\n  swap3\n  swap2\n  pop\n  pop\n  jump\t// out\n    /* \"#utility.yul\":3207:3398   */\ntag_24:\n    /* \"#utility.yul\":3376:3391   */\n  0x4d69206e6f6d6272652065733a00000000000000000000000000000000000000\n    /* \"#utility.yul\":3371:3374   */\n  dup2\n    /* \"#utility.yul\":3364:3392   */\n  mstore\n    /* \"#utility.yul\":3207:3398   */\n  pop\n  jump\t// out\n    /* \"#utility.yul\":3404:3552   */\ntag_25:\n    /* \"#utility.yul\":3506:3517   */\n  0x00\n    /* \"#utility.yul\":3543:3546   */\n  dup2\n    /* \"#utility.yul\":3528:3546   */\n  swap1\n  pop\n    /* \"#utility.yul\":3404:3552   */\n  swap3\n  swap2\n  pop\n  pop\n  jump\t// out\n    /* \"#utility.yul\":3558:3672   */\ntag_26:\n  pop\n  jump\t// out\n    /* \"#utility.yul\":3678:4078   */\ntag_27:\n    /* \"#utility.yul\":3838:3841   */\n  0x00\n    /* \"#utility.yul\":3859:3943   */\n  tag_91\n    /* \"#utility.yul\":3941:3942   */\n  0x00\n    /* \"#utility.yul\":3936:3939   */\n  dup4\n    /* \"#utility.yul\":3859:3943   */\n  tag_25\n  jump\t// in\ntag_91:\n    /* \"#utility.yul\":3852:3943   */\n  swap2\n  pop\n    /* \"#utility.yul\":3952:4045   */\n  tag_92\n    /* \"#utility.yul\":4041:4044   */\n  dup3\n    /* \"#utility.yul\":3952:4045   */\n  tag_26\n  jump\t// in\ntag_92:\n    /* \"#utility.yul\":4070:4071   */\n  0x00\n    /* \"#utility.yul\":4065:4068   */\n  dup3\n    /* \"#utility.yul\":4061:4072   */\n  add\n    /* \"#utility.yul\":4054:4072   */\n  swap1\n  pop\n    /* \"#utility.yul\":3678:4078   */\n  swap2\n  swap1\n  pop\n  jump\t// out\n    /* \"#utility.yul\":4084:4183   */\ntag_28:\n    /* \"#utility.yul\":4136:4142   */\n  0x00\n    /* \"#utility.yul\":4170:4175   */\n  dup2\n    /* \"#utility.yul\":4164:4176   */\n  mload\n    /* \"#utility.yul\":4154:4176   */\n  swap1\n  pop\n    /* \"#utility.yul\":4084:4183   */\n  swap2\n  swap1\n  pop\n  jump\t// out\n    /* \"#utility.yul\":4189:4579   */\ntag_29:\n    /* \"#utility.yul\":4295:4298   */\n  0x00\n    /* \"#utility.yul\":4323:4362   */\n  tag_95\n    /* \"#utility.yul\":4356:4361   */\n  dup3\n    /* \"#utility.yul\":4323:4362   */\n  tag_28\n  jump\t// in\ntag_95:\n    /* \"#utility.yul\":4378:4467   */\n  tag_96\n    /* \"#utility.yul\":4460:4466   */\n  dup2\n    /* \"#utility.yul\":4455:4458   */\n  dup6\n    /* \"#utility.yul\":4378:4467   */\n  tag_25\n  jump\t// in\ntag_96:\n    /* \"#utility.yul\":4371:4467   */\n  swap4\n  pop\n    /* \"#utility.yul\":4476:4541   */\n  tag_97\n    /* \"#utility.yul\":4534:4540   */\n  dup2\n    /* \"#utility.yul\":4529:4532   */\n  dup6\n    /* \"#utility.yul\":4522:4526   */\n  0x20\n    /* \"#utility.yul\":4515:4520   */\n  dup7\n    /* \"#utility.yul\":4511:4527   */\n  add\n    /* \"#utility.yul\":4476:4541   */\n  tag_21\n  jump\t// in\ntag_97:\n    /* \"#utility.yul\":4566:4572   */\n  dup1\n    /* \"#utility.yul\":4561:4564   */\n  dup5\n    /* \"#utility.yul\":4557:4573   */\n  add\n    /* \"#utility.yul\":4550:4573   */\n  swap2\n  pop\n    /* \"#utility.yul\":4299:4579   */\n  pop\n    /* \"#utility.yul\":4189:4579   */\n  swap3\n  swap2\n  pop\n  pop\n  jump\t// out\n    /* \"#utility.yul\":4585:5393   */\ntag_7:\n    /* \"#utility.yul\":4909:4912   */\n  0x00\n    /* \"#utility.yul\":4924:5062   */\n  tag_99\n    /* \"#utility.yul\":5058:5061   */\n  dup3\n    /* \"#utility.yul\":4924:5062   */\n  tag_24\n  jump\t// in\ntag_99:\n    /* \"#utility.yul\":5087:5089   */\n  0x0d\n    /* \"#utility.yul\":5082:5085   */\n  dup3\n    /* \"#utility.yul\":5078:5090   */\n  add\n    /* \"#utility.yul\":5071:5090   */\n  swap2\n  pop\n    /* \"#utility.yul\":5107:5255   */\n  tag_100\n    /* \"#utility.yul\":5251:5254   */\n  dup3\n    /* \"#utility.yul\":5107:5255   */\n  tag_27\n  jump\t// in\ntag_100:\n    /* \"#utility.yul\":5100:5255   */\n  swap2\n  pop\n    /* \"#utility.yul\":5272:5367   */\n  tag_101\n    /* \"#utility.yul\":5363:5366   */\n  dup3\n    /* \"#utility.yul\":5354:5360   */\n  dup5\n    /* \"#utility.yul\":5272:5367   */\n  tag_29\n  jump\t// in\ntag_101:\n    /* \"#utility.yul\":5265:5367   */\n  swap2\n  pop\n    /* \"#utility.yul\":5384:5387   */\n  dup2\n    /* \"#utility.yul\":5377:5387   */\n  swap1\n  pop\n    /* \"#utility.yul\":4585:5393   */\n  swap3\n  swap2\n  pop\n  pop\n  jump\t// out\n    /* \"#utility.yul\":5399:5579   */\ntag_30:\n    /* \"#utility.yul\":5447:5524   */\n  0x4e487b7100000000000000000000000000000000000000000000000000000000\n    /* \"#utility.yul\":5444:5445   */\n  0x00\n    /* \"#utility.yul\":5437:5525   */\n  mstore\n    /* \"#utility.yul\":5544:5548   */\n  0x22\n    /* \"#utility.yul\":5541:5542   */\n  0x04\n    /* \"#utility.yul\":5534:5549   */\n  mstore\n    /* \"#utility.yul\":5568:5572   */\n  0x24\n    /* \"#utility.yul\":5565:5566   */\n  0x00\n    /* \"#utility.yul\":5558:5573   */\n  revert\n    /* \"#utility.yul\":5585:5905   */\ntag_31:\n    /* \"#utility.yul\":5629:5635   */\n  0x00\n    /* \"#utility.yul\":5666:5667   */\n  0x02\n    /* \"#utility.yul\":5660:5664   */\n  dup3\n    /* \"#utility.yul\":5656:5668   */\n  div\n    /* \"#utility.yul\":5646:5668   */\n  swap1\n  pop\n    /* \"#utility.yul\":5713:5714   */\n  0x01\n    /* \"#utility.yul\":5707:5711   */\n  dup3\n    /* \"#utility.yul\":5703:5715   */\n  and\n    /* \"#utility.yul\":5734:5752   */\n  dup1\n    /* \"#utility.yul\":5724:5805   */\n  tag_104\n  jumpi\n    /* \"#utility.yul\":5790:5794   */\n  0x7f\n    /* \"#utility.yul\":5782:5788   */\n  dup3\n    /* \"#utility.yul\":5778:5795   */\n  and\n    /* \"#utility.yul\":5768:5795   */\n  swap2\n  pop\n    /* \"#utility.yul\":5724:5805   */\ntag_104:\n    /* \"#utility.yul\":5852:5854   */\n  0x20\n    /* \"#utility.yul\":5844:5850   */\n  dup3\n    /* \"#utility.yul\":5841:5855   */\n  lt\n    /* \"#utility.yul\":5821:5839   */\n  dup2\n    /* \"#utility.yul\":5818:5856   */\n  sub\n    /* \"#utility.yul\":5815:5899   */\n  tag_105\n  jumpi\n    /* \"#utility.yul\":5871:5889   */\n  tag_106\n  tag_30\n  jump\t// in\ntag_106:\n    /* \"#utility.yul\":5815:5899   */\ntag_105:\n    /* \"#utility.yul\":5636:5905   */\n  pop\n    /* \"#utility.yul\":5585:5905   */\n  swap2\n  swap1\n  pop\n  jump\t// out\n    /* \"#utility.yul\":5911:6052   */\ntag_32:\n    /* \"#utility.yul\":5960:5964   */\n  0x00\n    /* \"#utility.yul\":5983:5986   */\n  dup2\n    /* \"#utility.yul\":5975:5986   */\n  swap1\n  pop\n    /* \"#utility.yul\":6006:6009   */\n  dup2\n    /* \"#utility.yul\":6003:6004   */\n  0x00\n    /* \"#utility.yul\":5996:6010   */\n  mstore\n    /* \"#utility.yul\":6040:6044   */\n  0x20\n    /* \"#utility.yul\":6037:6038   */\n  0x00\n    /* \"#utility.yul\":6027:6045   */\n  keccak256\n    /* \"#utility.yul\":6019:6045   */\n  swap1\n  pop\n    /* \"#utility.yul\":5911:6052   */\n  swap2\n  swap1\n  pop\n  jump\t// out\n    /* \"#utility.yul\":6058:6151   */\ntag_33:\n    /* \"#utility.yul\":6095:6101   */\n  0x00\n    /* \"#utility.yul\":6142:6144   */\n  0x20\n    /* \"#utility.yul\":6137:6139   */\n  0x1f\n    /* \"#utility.yul\":6130:6135   */\n  dup4\n    /* \"#utility.yul\":6126:6140   */\n  add\n    /* \"#utility.yul\":6122:6145   */\n  div\n    /* \"#utility.yul\":6112:6145   */\n  swap1\n  pop\n    /* \"#utility.yul\":6058:6151   */\n  swap2\n  swap1\n  pop\n  jump\t// out\n    /* \"#utility.yul\":6157:6264   */\ntag_34:\n    /* \"#utility.yul\":6201:6209   */\n  0x00\n    /* \"#utility.yul\":6251:6256   */\n  dup3\n    /* \"#utility.yul\":6245:6249   */\n  dup3\n    /* \"#utility.yul\":6241:6257   */\n  shl\n    /* \"#utility.yul\":6220:6257   */\n  swap1\n  pop\n    /* \"#utility.yul\":6157:6264   */\n  swap3\n  swap2\n  pop\n  pop\n  jump\t// out\n    /* \"#utility.yul\":6270:6663   */\ntag_35:\n    /* \"#utility.yul\":6339:6345   */\n  0x00\n    /* \"#utility.yul\":6389:6390   */\n  0x08\n    /* \"#utility.yul\":6377:6387   */\n  dup4\n    /* \"#utility.yul\":6373:6391   */\n  mul\n    /* \"#utility.yul\":6412:6509   */\n  tag_111\n    /* \"#utility.yul\":6442:6508   */\n  0xffffffffffffffffffffffffffffffffffffffffffffffffffffffffffffffff\n    /* \"#utility.yul\":6431:6440   */\n  dup3\n    /* \"#utility.yul\":6412:6509   */\n  tag_34\n  jump\t// in\ntag_111:\n    /* \"#utility.yul\":6530:6569   */\n  tag_112\n    /* \"#utility.yul\":6560:6568   */\n  dup7\n    /* \"#utility.yul\":6549:6558   */\n  dup4\n    /* \"#utility.yul\":6530:6569   */\n  tag_34\n  jump\t// in\ntag_112:\n    /* \"#utility.yul\":6518:6569   */\n  swap6\n  pop\n    /* \"#utility.yul\":6602:6606   */\n  dup1\n    /* \"#utility.yul\":6598:6607   */\n  not\n    /* \"#utility.yul\":6591:6596   */\n  dup5\n    /* \"#utility.yul\":6587:6608   */\n  and\n    /* \"#utility.yul\":6578:6608   */\n  swap4\n  pop\n    /* \"#utility.yul\":6651:6655   */\n  dup1\n    /* \"#utility.yul\":6641:6649   */\n  dup7\n    /* \"#utility.yul\":6637:6656   */\n  and\n    /* \"#utility.yul\":6630:6635   */\n  dup5\n    /* \"#utility.yul\":6627:6657   */\n  or\n    /* \"#utility.yul\":6617:6657   */\n  swap3\n  pop\n    /* \"#utility.yul\":6346:6663   */\n  pop\n  pop\n    /* \"#utility.yul\":6270:6663   */\n  swap4\n  swap3\n  pop\n  pop\n  pop\n  jump\t// out\n    /* \"#utility.yul\":6669:6746   */\ntag_36:\n    /* \"#utility.yul\":6706:6713   */\n  0x00\n    /* \"#utility.yul\":6735:6740   */\n  dup2\n    /* \"#utility.yul\":6724:6740   */\n  swap1\n  pop\n    /* \"#utility.yul\":6669:6746   */\n  swap2\n  swap1\n  pop\n  jump\t// out\n    /* \"#utility.yul\":6752:6812   */\ntag_37:\n    /* \"#utility.yul\":6780:6783   */\n  0x00\n    /* \"#utility.yul\":6801:6806   */\n  dup2\n    /* \"#utility.yul\":6794:6806   */\n  swap1\n  pop\n    /* \"#utility.yul\":6752:6812   */\n  swap2\n  swap1\n  pop\n  jump\t// out\n    /* \"#utility.yul\":6818:6960   */\ntag_38:\n    /* \"#utility.yul\":6868:6877   */\n  0x00\n    /* \"#utility.yul\":6901:6954   */\n  tag_116\n    /* \"#utility.yul\":6919:6953   */\n  tag_117\n    /* \"#utility.yul\":6928:6952   */\n  tag_118\n    /* \"#utility.yul\":6946:6951   */\n  dup5\n    /* \"#utility.yul\":6928:6952   */\n  tag_36\n  jump\t// in\ntag_118:\n    /* \"#utility.yul\":6919:6953   */\n  tag_37\n  jump\t// in\ntag_117:\n    /* \"#utility.yul\":6901:6954   */\n  tag_36\n  jump\t// in\ntag_116:\n    /* \"#utility.yul\":6888:6954   */\n  swap1\n  pop\n    /* \"#utility.yul\":6818:6960   */\n  swap2\n  swap1\n  pop\n  jump\t// out\n    /* \"#utility.yul\":6966:7041   */\ntag_39:\n    /* \"#utility.yul\":7009:7012   */\n  0x00\n    /* \"#utility.yul\":7030:7035   */\n  dup2\n    /* \"#utility.yul\":7023:7035   */\n  swap1\n  pop\n    /* \"#utility.yul\":6966:7041   */\n  swap2\n  swap1\n  pop\n  jump\t// out\n    /* \"#utility.yul\":7047:7316   */\ntag_40:\n    /* \"#utility.yul\":7157:7196   */\n  tag_121\n    /* \"#utility.yul\":7188:7195   */\n  dup4\n    /* \"#utility.yul\":7157:7196   */\n  tag_38\n  jump\t// in\ntag_121:\n    /* \"#utility.yul\":7218:7309   */\n  tag_122\n    /* \"#utility.yul\":7267:7308   */\n  tag_123\n    /* \"#utility.yul\":7291:7307   */\n  dup3\n    /* \"#utility.yul\":7267:7308   */\n  tag_39\n  jump\t// in\ntag_123:\n    /* \"#utility.yul\":7259:7265   */\n  dup5\n    /* \"#utility.yul\":7252:7256   */\n  dup5\n    /* \"#utility.yul\":7246:7257   */\n  sload\n    /* \"#utility.yul\":7218:7309   */\n  tag_35\n  jump\t// in\ntag_122:\n    /* \"#utility.yul\":7212:7216   */\n  dup3\n    /* \"#utility.yul\":7205:7310   */\n  sstore\n    /* \"#utility.yul\":7123:7316   */\n  pop\n    /* \"#utility.yul\":7047:7316   */\n  pop\n  pop\n  pop\n  jump\t// out\n    /* \"#utility.yul\":7322:7395   */\ntag_41:\n    /* \"#utility.yul\":7367:7370   */\n  0x00\n    /* \"#utility.yul\":7322:7395   */\n  swap1\n  jump\t// out\n    /* \"#utility.yul\":7401:7590   */\ntag_42:\n    /* \"#utility.yul\":7478:7510   */\n  tag_126\n  tag_41\n  jump\t// in\ntag_126:\n    /* \"#utility.yul\":7519:7584   */\n  tag_127\n    /* \"#utility.yul\":7577:7583   */\n  dup2\n    /* \"#utility.yul\":7569:7575   */\n  dup5\n    /* \"#utility.yul\":7563:7567   */\n  dup5\n    /* \"#utility.yul\":7519:7584   */\n  tag_40\n  jump\t// in\ntag_127:\n    /* \"#utility.yul\":7454:7590   */\n  pop\n    /* \"#utility.yul\":7401:7590   */\n  pop\n  pop\n  jump\t// out\n    /* \"#utility.yul\":7596:7782   */\ntag_43:\n    /* \"#utility.yul\":7656:7776   */\ntag_129:\n    /* \"#utility.yul\":7673:7676   */\n  dup2\n    /* \"#utility.yul\":7666:7671   */\n  dup2\n    /* \"#utility.yul\":7663:7677   */\n  lt\n    /* \"#utility.yul\":7656:7776   */\n  iszero\n  tag_131\n  jumpi\n    /* \"#utility.yul\":7727:7766   */\n  tag_132\n    /* \"#utility.yul\":7764:7765   */\n  0x00\n    /* \"#utility.yul\":7757:7762   */\n  dup3\n    /* \"#utility.yul\":7727:7766   */\n  tag_42\n  jump\t// in\ntag_132:\n    /* \"#utility.yul\":7700:7701   */\n  0x01\n    /* \"#utility.yul\":7693:7698   */\n  dup2\n    /* \"#utility.yul\":7689:7702   */\n  add\n    /* \"#utility.yul\":7680:7702   */\n  swap1\n  pop\n    /* \"#utility.yul\":7656:7776   */\n  jump(tag_129)\ntag_131:\n    /* \"#utility.yul\":7596:7782   */\n  pop\n  pop\n  jump\t// out\n    /* \"#utility.yul\":7788:8331   */\ntag_44:\n    /* \"#utility.yul\":7889:7891   */\n  0x1f\n    /* \"#utility.yul\":7884:7887   */\n  dup3\n    /* \"#utility.yul\":7881:7892   */\n  gt\n    /* \"#utility.yul\":7878:8324   */\n  iszero\n  tag_134\n  jumpi\n    /* \"#utility.yul\":7923:7961   */\n  tag_135\n    /* \"#utility.yul\":7955:7960   */\n  dup2\n    /* \"#utility.yul\":7923:7961   */\n  tag_32\n  jump\t// in\ntag_135:\n    /* \"#utility.yul\":8007:8036   */\n  tag_136\n    /* \"#utility.yul\":8025:8035   */\n  dup5\n    /* \"#utility.yul\":8007:8036   */\n  tag_33\n  jump\t// in\ntag_136:\n    /* \"#utility.yul\":7997:8005   */\n  dup2\n    /* \"#utility.yul\":7993:8037   */\n  add\n    /* \"#utility.yul\":8190:8192   */\n  0x20\n    /* \"#utility.yul\":8178:8188   */\n  dup6\n    /* \"#utility.yul\":8175:8193   */\n  lt\n    /* \"#utility.yul\":8172:8221   */\n  iszero\n  tag_137\n  jumpi\n    /* \"#utility.yul\":8211:8219   */\n  dup2\n    /* \"#utility.yul\":8196:8219   */\n  swap1\n  pop\n    /* \"#utility.yul\":8172:8221   */\ntag_137:\n    /* \"#utility.yul\":8234:8314   */\n  tag_138\n    /* \"#utility.yul\":8290:8312   */\n  tag_139\n    /* \"#utility.yul\":8308:8311   */\n  dup6\n    /* \"#utility.yul\":8290:8312   */\n  tag_33\n  jump\t// in\ntag_139:\n    /* \"#utility.yul\":8280:8288   */\n  dup4\n    /* \"#utility.yul\":8276:8313   */\n  add\n    /* \"#utility.yul\":8263:8274   */\n  dup3\n    /* \"#utility.yul\":8234:8314   */\n  tag_43\n  jump\t// in\ntag_138:\n    /* \"#utility.yul\":7893:8324   */\n  pop\n  pop\n    /* \"#utility.yul\":7878:8324   */\ntag_134:\n    /* \"#utility.yul\":7788:8331   */\n  pop\n  pop\n  pop\n  jump\t// out\n    /* \"#utility.yul\":8337:8454   */\ntag_45:\n    /* \"#utility.yul\":8391:8399   */\n  0x00\n    /* \"#utility.yul\":8441:8446   */\n  dup3\n    /* \"#utility.yul\":8435:8439   */\n  dup3\n    /* \"#utility.yul\":8431:8447   */\n  shr\n    /* \"#utility.yul\":8410:8447   */\n  swap1\n  pop\n    /* \"#utility.yul\":8337:8454   */\n  swap3\n  swap2\n  pop\n  pop\n  jump\t// out\n    /* \"#utility.yul\":8460:8629   */\ntag_46:\n    /* \"#utility.yul\":8504:8510   */\n  0x00\n    /* \"#utility.yul\":8537:8588   */\n  tag_142\n    /* \"#utility.yul\":8585:8586   */\n  0x00\n    /* \"#utility.yul\":8581:8587   */\n  not\n    /* \"#utility.yul\":8573:8578   */\n  dup5\n    /* \"#utility.yul\":8570:8571   */\n  0x08\n    /* \"#utility.yul\":8566:8579   */\n  mul\n    /* \"#utility.yul\":8537:8588   */\n  tag_45\n  jump\t// in\ntag_142:\n    /* \"#utility.yul\":8533:8589   */\n  not\n    /* \"#utility.yul\":8618:8622   */\n  dup1\n    /* \"#utility.yul\":8612:8616   */\n  dup4\n    /* \"#utility.yul\":8608:8623   */\n  and\n    /* \"#utility.yul\":8598:8623   */\n  swap2\n  pop\n    /* \"#utility.yul\":8511:8629   */\n  pop\n    /* \"#utility.yul\":8460:8629   */\n  swap3\n  swap2\n  pop\n  pop\n  jump\t// out\n    /* \"#utility.yul\":8634:8929   */\ntag_47:\n    /* \"#utility.yul\":8710:8714   */\n  0x00\n    /* \"#utility.yul\":8856:8885   */\n  tag_144\n    /* \"#utility.yul\":8881:8884   */\n  dup4\n    /* \"#utility.yul\":8875:8879   */\n  dup4\n    /* \"#utility.yul\":8856:8885   */\n  tag_46\n  jump\t// in\ntag_144:\n    /* \"#utility.yul\":8848:8885   */\n  swap2\n  pop\n    /* \"#utility.yul\":8918:8921   */\n  dup3\n    /* \"#utility.yul\":8915:8916   */\n  0x02\n    /* \"#utility.yul\":8911:8922   */\n  mul\n    /* \"#utility.yul\":8905:8909   */\n  dup3\n    /* \"#utility.yul\":8902:8923   */\n  or\n    /* \"#utility.yul\":8894:8923   */\n  swap1\n  pop\n    /* \"#utility.yul\":8634:8929   */\n  swap3\n  swap2\n  pop\n  pop\n  jump\t// out\n    /* \"#utility.yul\":8934:10329   */\ntag_9:\n    /* \"#utility.yul\":9051:9088   */\n  tag_146\n    /* \"#utility.yul\":9084:9087   */\n  dup3\n    /* \"#utility.yul\":9051:9088   */\n  tag_28\n  jump\t// in\ntag_146:\n    /* \"#utility.yul\":9153:9171   */\n  0xffffffffffffffff\n    /* \"#utility.yul\":9145:9151   */\n  dup2\n    /* \"#utility.yul\":9142:9172   */\n  gt\n    /* \"#utility.yul\":9139:9195   */\n  iszero\n  tag_147\n  jumpi\n    /* \"#utility.yul\":9175:9193   */\n  tag_148\n  tag_17\n  jump\t// in\ntag_148:\n    /* \"#utility.yul\":9139:9195   */\ntag_147:\n    /* \"#utility.yul\":9219:9257   */\n  tag_149\n    /* \"#utility.yul\":9251:9255   */\n  dup3\n    /* \"#utility.yul\":9245:9256   */\n  sload\n    /* \"#utility.yul\":9219:9257   */\n  tag_31\n  jump\t// in\ntag_149:\n    /* \"#utility.yul\":9304:9371   */\n  tag_150\n    /* \"#utility.yul\":9364:9370   */\n  dup3\n    /* \"#utility.yul\":9356:9362   */\n  dup3\n    /* \"#utility.yul\":9350:9354   */\n  dup6\n    /* \"#utility.yul\":9304:9371   */\n  tag_44\n  jump\t// in\ntag_150:\n    /* \"#utility.yul\":9398:9399   */\n  0x00\n    /* \"#utility.yul\":9422:9426   */\n  0x20\n    /* \"#utility.yul\":9409:9426   */\n  swap1\n  pop\n    /* \"#utility.yul\":9454:9456   */\n  0x1f\n    /* \"#utility.yul\":9446:9452   */\n  dup4\n    /* \"#utility.yul\":9443:9457   */\n  gt\n    /* \"#utility.yul\":9471:9472   */\n  0x01\n    /* \"#utility.yul\":9466:10084   */\n  dup2\n  eq\n  tag_152\n  jumpi\n    /* \"#utility.yul\":10128:10129   */\n  0x00\n    /* \"#utility.yul\":10145:10151   */\n  dup5\n    /* \"#utility.yul\":10142:10219   */\n  iszero\n  tag_153\n  jumpi\n    /* \"#utility.yul\":10194:10203   */\n  dup3\n    /* \"#utility.yul\":10189:10192   */\n  dup8\n    /* \"#utility.yul\":10185:10204   */\n  add\n    /* \"#utility.yul\":10179:10205   */\n  mload\n    /* \"#utility.yul\":10170:10205   */\n  swap1\n  pop\n    /* \"#utility.yul\":10142:10219   */\ntag_153:\n    /* \"#utility.yul\":10245:10312   */\n  tag_154\n    /* \"#utility.yul\":10305:10311   */\n  dup6\n    /* \"#utility.yul\":10298:10303   */\n  dup3\n    /* \"#utility.yul\":10245:10312   */\n  tag_47\n  jump\t// in\ntag_154:\n    /* \"#utility.yul\":10239:10243   */\n  dup7\n    /* \"#utility.yul\":10232:10313   */\n  sstore\n    /* \"#utility.yul\":10101:10323   */\n  pop\n    /* \"#utility.yul\":9436:10323   */\n  jump(tag_151)\n    /* \"#utility.yul\":9466:10084   */\ntag_152:\n    /* \"#utility.yul\":9518:9522   */\n  0x1f\n    /* \"#utility.yul\":9514:9523   */\n  not\n    /* \"#utility.yul\":9506:9512   */\n  dup5\n    /* \"#utility.yul\":9502:9524   */\n  and\n    /* \"#utility.yul\":9552:9589   */\n  tag_155\n    /* \"#utility.yul\":9584:9588   */\n  dup7\n    /* \"#utility.yul\":9552:9589   */\n  tag_32\n  jump\t// in\ntag_155:\n    /* \"#utility.yul\":9611:9612   */\n  0x00\n    /* \"#utility.yul\":9625:9833   */\ntag_156:\n    /* \"#utility.yul\":9639:9646   */\n  dup3\n    /* \"#utility.yul\":9636:9637   */\n  dup2\n    /* \"#utility.yul\":9633:9647   */\n  lt\n    /* \"#utility.yul\":9625:9833   */\n  iszero\n  tag_158\n  jumpi\n    /* \"#utility.yul\":9718:9727   */\n  dup5\n    /* \"#utility.yul\":9713:9716   */\n  dup10\n    /* \"#utility.yul\":9709:9728   */\n  add\n    /* \"#utility.yul\":9703:9729   */\n  mload\n    /* \"#utility.yul\":9695:9701   */\n  dup3\n    /* \"#utility.yul\":9688:9730   */\n  sstore\n    /* \"#utility.yul\":9769:9770   */\n  0x01\n    /* \"#utility.yul\":9761:9767   */\n  dup3\n    /* \"#utility.yul\":9757:9771   */\n  add\n    /* \"#utility.yul\":9747:9771   */\n  swap2\n  pop\n    /* \"#utility.yul\":9816:9818   */\n  0x20\n    /* \"#utility.yul\":9805:9814   */\n  dup6\n    /* \"#utility.yul\":9801:9819   */\n  add\n    /* \"#utility.yul\":9788:9819   */\n  swap5\n  pop\n    /* \"#utility.yul\":9662:9666   */\n  0x20\n    /* \"#utility.yul\":9659:9660   */\n  dup2\n    /* \"#utility.yul\":9655:9667   */\n  add\n    /* \"#utility.yul\":9650:9667   */\n  swap1\n  pop\n    /* \"#utility.yul\":9625:9833   */\n  jump(tag_156)\ntag_158:\n    /* \"#utility.yul\":9861:9867   */\n  dup7\n    /* \"#utility.yul\":9852:9859   */\n  dup4\n    /* \"#utility.yul\":9849:9868   */\n  lt\n    /* \"#utility.yul\":9846:10025   */\n  iszero\n  tag_159\n  jumpi\n    /* \"#utility.yul\":9919:9928   */\n  dup5\n    /* \"#utility.yul\":9914:9917   */\n  dup10\n    /* \"#utility.yul\":9910:9929   */\n  add\n    /* \"#utility.yul\":9904:9930   */\n  mload\n    /* \"#utility.yul\":9962:10010   */\n  tag_160\n    /* \"#utility.yul\":10004:10008   */\n  0x1f\n    /* \"#utility.yul\":9996:10002   */\n  dup10\n    /* \"#utility.yul\":9992:10009   */\n  and\n    /* \"#utility.yul\":9981:9990   */\n  dup3\n    /* \"#utility.yul\":9962:10010   */\n  tag_46\n  jump\t// in\ntag_160:\n    /* \"#utility.yul\":9954:9960   */\n  dup4\n    /* \"#utility.yul\":9947:10011   */\n  sstore\n    /* \"#utility.yul\":9869:10025   */\n  pop\n    /* \"#utility.yul\":9846:10025   */\ntag_159:\n    /* \"#utility.yul\":10071:10072   */\n  0x01\n    /* \"#utility.yul\":10067:10068   */\n  0x02\n    /* \"#utility.yul\":10059:10065   */\n  dup9\n    /* \"#utility.yul\":10055:10069   */\n  mul\n    /* \"#utility.yul\":10051:10073   */\n  add\n    /* \"#utility.yul\":10045:10049   */\n  dup9\n    /* \"#utility.yul\":10038:10074   */\n  sstore\n    /* \"#utility.yul\":9473:10084   */\n  pop\n  pop\n  pop\n    /* \"#utility.yul\":9436:10323   */\ntag_151:\n  pop\n    /* \"#utility.yul\":9026:10329   */\n  pop\n  pop\n  pop\n    /* \"#utility.yul\":8934:10329   */\n  pop\n  pop\n  jump\t// out\n    /* \"variables_nativas.sol\":60:815  contract variables_nativas {... */\ntag_10:\n  dataSize(sub_0)\n  dup1\n  dataOffset(sub_0)\n  0x00\n  codecopy\n  0x00\n  return\nstop\n\nsub_0: assembly {\n        /* \"variables_nativas.sol\":60:815  contract variables_nativas {... */\n      mstore(0x40, 0x80)\n      callvalue\n      dup1\n      iszero\n      tag_1\n      jumpi\n      0x00\n      dup1\n      revert\n    tag_1:\n      pop\n      jumpi(tag_2, lt(calldatasize, 0x04))\n      shr(0xe0, calldataload(0x00))\n      dup1\n      0x17d7de7c\n      eq\n      tag_3\n      jumpi\n      dup1\n      0x22ea39cc\n      eq\n      tag_4\n      jumpi\n      dup1\n      0xb71d2cec\n      eq\n      tag_5\n      jumpi\n      dup1\n      0xdf77a62e\n      eq\n      tag_6\n      jumpi\n      dup1\n      0xf950fc6d\n      eq\n      tag_7\n      jumpi\n    tag_2:\n      0x00\n      dup1\n      revert\n        /* \"variables_nativas.sol\":304:406  function getName() public view  returns (string memory) {... */\n    tag_3:\n      tag_8\n      tag_9\n      jump\t// in\n    tag_8:\n      mload(0x40)\n      tag_10\n      swap2\n      swap1\n      tag_11\n      jump\t// in\n    tag_10:\n      mload(0x40)\n      dup1\n      swap2\n      sub\n      swap1\n      return\n        /* \"variables_nativas.sol\":578:605  uint16 public uint_16 = 123 */\n    tag_4:\n      tag_12\n      tag_13\n      jump\t// in\n    tag_12:\n      mload(0x40)\n      tag_14\n      swap2\n      swap1\n      tag_15\n      jump\t// in\n    tag_14:\n      mload(0x40)\n      dup1\n      swap2\n      sub\n      swap1\n      return\n        /* \"variables_nativas.sol\":735:805  address public my_address = 0x014ED7B4735F042Decd0167D9c30eec780AE0D3b */\n    tag_5:\n      tag_16\n      tag_17\n      jump\t// in\n    tag_16:\n      mload(0x40)\n      tag_18\n      swap2\n      swap1\n      tag_19\n      jump\t// in\n    tag_18:\n      mload(0x40)\n      dup1\n      swap2\n      sub\n      swap1\n      return\n        /* \"variables_nativas.sol\":658:680  int8 public int_8 = -1 */\n    tag_6:\n      tag_20\n      tag_21\n      jump\t// in\n    tag_20:\n      mload(0x40)\n      tag_22\n      swap2\n      swap1\n      tag_23\n      jump\t// in\n    tag_22:\n      mload(0x40)\n      dup1\n      swap2\n      sub\n      swap1\n      return\n        /* \"variables_nativas.sol\":548:571  uint8 public uint_8 = 1 */\n    tag_7:\n      tag_24\n      tag_25\n      jump\t// in\n    tag_24:\n      mload(0x40)\n      tag_26\n      swap2\n      swap1\n      tag_27\n      jump\t// in\n    tag_26:\n      mload(0x40)\n      dup1\n      swap2\n      sub\n      swap1\n      return\n        /* \"variables_nativas.sol\":304:406  function getName() public view  returns (string memory) {... */\n    tag_9:\n        /* \"variables_nativas.sol\":345:358  string memory */\n      0x60\n        /* \"variables_nativas.sol\":380:388  fullName */\n      0x00\n        /* \"variables_nativas.sol\":373:388  return fullName */\n      dup1\n      sload\n      tag_29\n      swap1\n      tag_30\n      jump\t// in\n    tag_29:\n      dup1\n      0x1f\n      add\n      0x20\n      dup1\n      swap2\n      div\n      mul\n      0x20\n      add\n      mload(0x40)\n      swap1\n      dup2\n      add\n      0x40\n      mstore\n      dup1\n      swap3\n      swap2\n      swap1\n      dup2\n      dup2\n      mstore\n      0x20\n      add\n      dup3\n      dup1\n      sload\n      tag_31\n      swap1\n      tag_30\n      jump\t// in\n    tag_31:\n      dup1\n      iszero\n      tag_32\n      jumpi\n      dup1\n      0x1f\n      lt\n      tag_33\n      jumpi\n      0x0100\n      dup1\n      dup4\n      sload\n      div\n      mul\n      dup4\n      mstore\n      swap2\n      0x20\n      add\n      swap2\n      jump(tag_32)\n    tag_33:\n      dup3\n      add\n      swap2\n      swap1\n      0x00\n      mstore\n      keccak256(0x00, 0x20)\n      swap1\n    tag_34:\n      dup2\n      sload\n      dup2\n      mstore\n      swap1\n      0x01\n      add\n      swap1\n      0x20\n      add\n      dup1\n      dup4\n      gt\n      tag_34\n      jumpi\n      dup3\n      swap1\n      sub\n      0x1f\n      and\n      dup3\n      add\n      swap2\n    tag_32:\n      pop\n      pop\n      pop\n      pop\n      pop\n      swap1\n      pop\n        /* \"variables_nativas.sol\":304:406  function getName() public view  returns (string memory) {... */\n      swap1\n      jump\t// out\n        /* \"variables_nativas.sol\":578:605  uint16 public uint_16 = 123 */\n    tag_13:\n      0x01\n      dup1\n      sload\n      swap1\n      0x0100\n      exp\n      swap1\n      div\n      0xffff\n      and\n      dup2\n      jump\t// out\n        /* \"variables_nativas.sol\":735:805  address public my_address = 0x014ED7B4735F042Decd0167D9c30eec780AE0D3b */\n    tag_17:\n      0x01\n      0x04\n      swap1\n      sload\n      swap1\n      0x0100\n      exp\n      swap1\n      div\n      0xffffffffffffffffffffffffffffffffffffffff\n      and\n      dup2\n      jump\t// out\n        /* \"variables_nativas.sol\":658:680  int8 public int_8 = -1 */\n    tag_21:\n      0x01\n      0x03\n      swap1\n      sload\n      swap1\n      0x0100\n      exp\n      swap1\n      div\n      0x00\n      signextend\n      dup2\n      jump\t// out\n        /* \"variables_nativas.sol\":548:571  uint8 public uint_8 = 1 */\n    tag_25:\n      0x01\n      0x00\n      swap1\n      sload\n      swap1\n      0x0100\n      exp\n      swap1\n      div\n      0xff\n      and\n      dup2\n      jump\t// out\n        /* \"#utility.yul\":7:106   */\n    tag_35:\n        /* \"#utility.yul\":59:65   */\n      0x00\n        /* \"#utility.yul\":93:98   */\n      dup2\n        /* \"#utility.yul\":87:99   */\n      mload\n        /* \"#utility.yul\":77:99   */\n      swap1\n      pop\n        /* \"#utility.yul\":7:106   */\n      swap2\n      swap1\n      pop\n      jump\t// out\n        /* \"#utility.yul\":112:281   */\n    tag_36:\n        /* \"#utility.yul\":196:207   */\n      0x00\n        /* \"#utility.yul\":230:236   */\n      dup3\n        /* \"#utility.yul\":225:228   */\n      dup3\n        /* \"#utility.yul\":218:237   */\n      mstore\n        /* \"#utility.yul\":270:274   */\n      0x20\n        /* \"#utility.yul\":265:268   */\n      dup3\n        /* \"#utility.yul\":261:275   */\n      add\n        /* \"#utility.yul\":246:275   */\n      swap1\n      pop\n        /* \"#utility.yul\":112:281   */\n      swap3\n      swap2\n      pop\n      pop\n      jump\t// out\n        /* \"#utility.yul\":287:533   */\n    tag_37:\n        /* \"#utility.yul\":368:369   */\n      0x00\n        /* \"#utility.yul\":378:491   */\n    tag_54:\n        /* \"#utility.yul\":392:398   */\n      dup4\n        /* \"#utility.yul\":389:390   */\n      dup2\n        /* \"#utility.yul\":386:399   */\n      lt\n        /* \"#utility.yul\":378:491   */\n      iszero\n      tag_56\n      jumpi\n        /* \"#utility.yul\":477:478   */\n      dup1\n        /* \"#utility.yul\":472:475   */\n      dup3\n        /* \"#utility.yul\":468:479   */\n      add\n        /* \"#utility.yul\":462:480   */\n      mload\n        /* \"#utility.yul\":458:459   */\n      dup2\n        /* \"#utility.yul\":453:456   */\n      dup5\n        /* \"#utility.yul\":449:460   */\n      add\n        /* \"#utility.yul\":442:481   */\n      mstore\n        /* \"#utility.yul\":414:416   */\n      0x20\n        /* \"#utility.yul\":411:412   */\n      dup2\n        /* \"#utility.yul\":407:417   */\n      add\n        /* \"#utility.yul\":402:417   */\n      swap1\n      pop\n        /* \"#utility.yul\":378:491   */\n      jump(tag_54)\n    tag_56:\n        /* \"#utility.yul\":525:526   */\n      0x00\n        /* \"#utility.yul\":516:522   */\n      dup5\n        /* \"#utility.yul\":511:514   */\n      dup5\n        /* \"#utility.yul\":507:523   */\n      add\n        /* \"#utility.yul\":500:527   */\n      mstore\n        /* \"#utility.yul\":349:533   */\n      pop\n        /* \"#utility.yul\":287:533   */\n      pop\n      pop\n      pop\n      jump\t// out\n        /* \"#utility.yul\":539:641   */\n    tag_38:\n        /* \"#utility.yul\":580:586   */\n      0x00\n        /* \"#utility.yul\":631:633   */\n      0x1f\n        /* \"#utility.yul\":627:634   */\n      not\n        /* \"#utility.yul\":622:624   */\n      0x1f\n        /* \"#utility.yul\":615:620   */\n      dup4\n        /* \"#utility.yul\":611:625   */\n      add\n        /* \"#utility.yul\":607:635   */\n      and\n        /* \"#utility.yul\":597:635   */\n      swap1\n      pop\n        /* \"#utility.yul\":539:641   */\n      swap2\n      swap1\n      pop\n      jump\t// out\n        /* \"#utility.yul\":647:1024   */\n    tag_39:\n        /* \"#utility.yul\":735:738   */\n      0x00\n        /* \"#utility.yul\":763:802   */\n      tag_59\n        /* \"#utility.yul\":796:801   */\n      dup3\n        /* \"#utility.yul\":763:802   */\n      tag_35\n      jump\t// in\n    tag_59:\n        /* \"#utility.yul\":818:889   */\n      tag_60\n        /* \"#utility.yul\":882:888   */\n      dup2\n        /* \"#utility.yul\":877:880   */\n      dup6\n        /* \"#utility.yul\":818:889   */\n      tag_36\n      jump\t// in\n    tag_60:\n        /* \"#utility.yul\":811:889   */\n      swap4\n      pop\n        /* \"#utility.yul\":898:963   */\n      tag_61\n        /* \"#utility.yul\":956:962   */\n      dup2\n        /* \"#utility.yul\":951:954   */\n      dup6\n        /* \"#utility.yul\":944:948   */\n      0x20\n        /* \"#utility.yul\":937:942   */\n      dup7\n        /* \"#utility.yul\":933:949   */\n      add\n        /* \"#utility.yul\":898:963   */\n      tag_37\n      jump\t// in\n    tag_61:\n        /* \"#utility.yul\":988:1017   */\n      tag_62\n        /* \"#utility.yul\":1010:1016   */\n      dup2\n        /* \"#utility.yul\":988:1017   */\n      tag_38\n      jump\t// in\n    tag_62:\n        /* \"#utility.yul\":983:986   */\n      dup5\n        /* \"#utility.yul\":979:1018   */\n      add\n        /* \"#utility.yul\":972:1018   */\n      swap2\n      pop\n        /* \"#utility.yul\":739:1024   */\n      pop\n        /* \"#utility.yul\":647:1024   */\n      swap3\n      swap2\n      pop\n      pop\n      jump\t// out\n        /* \"#utility.yul\":1030:1343   */\n    tag_11:\n        /* \"#utility.yul\":1143:1147   */\n      0x00\n        /* \"#utility.yul\":1181:1183   */\n      0x20\n        /* \"#utility.yul\":1170:1179   */\n      dup3\n        /* \"#utility.yul\":1166:1184   */\n      add\n        /* \"#utility.yul\":1158:1184   */\n      swap1\n      pop\n        /* \"#utility.yul\":1230:1239   */\n      dup2\n        /* \"#utility.yul\":1224:1228   */\n      dup2\n        /* \"#utility.yul\":1220:1240   */\n      sub\n        /* \"#utility.yul\":1216:1217   */\n      0x00\n        /* \"#utility.yul\":1205:1214   */\n      dup4\n        /* \"#utility.yul\":1201:1218   */\n      add\n        /* \"#utility.yul\":1194:1241   */\n      mstore\n        /* \"#utility.yul\":1258:1336   */\n      tag_64\n        /* \"#utility.yul\":1331:1335   */\n      dup2\n        /* \"#utility.yul\":1322:1328   */\n      dup5\n        /* \"#utility.yul\":1258:1336   */\n      tag_39\n      jump\t// in\n    tag_64:\n        /* \"#utility.yul\":1250:1336   */\n      swap1\n      pop\n        /* \"#utility.yul\":1030:1343   */\n      swap3\n      swap2\n      pop\n      pop\n      jump\t// out\n        /* \"#utility.yul\":1349:1438   */\n    tag_40:\n        /* \"#utility.yul\":1385:1392   */\n      0x00\n        /* \"#utility.yul\":1425:1431   */\n      0xffff\n        /* \"#utility.yul\":1418:1423   */\n      dup3\n        /* \"#utility.yul\":1414:1432   */\n      and\n        /* \"#utility.yul\":1403:1432   */\n      swap1\n      pop\n        /* \"#utility.yul\":1349:1438   */\n      swap2\n      swap1\n      pop\n      jump\t// out\n        /* \"#utility.yul\":1444:1559   */\n    tag_41:\n        /* \"#utility.yul\":1529:1552   */\n      tag_67\n        /* \"#utility.yul\":1546:1551   */\n      dup2\n        /* \"#utility.yul\":1529:1552   */\n      tag_40\n      jump\t// in\n    tag_67:\n        /* \"#utility.yul\":1524:1527   */\n      dup3\n        /* \"#utility.yul\":1517:1553   */\n      mstore\n        /* \"#utility.yul\":1444:1559   */\n      pop\n      pop\n      jump\t// out\n        /* \"#utility.yul\":1565:1783   */\n    tag_15:\n        /* \"#utility.yul\":1656:1660   */\n      0x00\n        /* \"#utility.yul\":1694:1696   */\n      0x20\n        /* \"#utility.yul\":1683:1692   */\n      dup3\n        /* \"#utility.yul\":1679:1697   */\n      add\n        /* \"#utility.yul\":1671:1697   */\n      swap1\n      pop\n        /* \"#utility.yul\":1707:1776   */\n      tag_69\n        /* \"#utility.yul\":1773:1774   */\n      0x00\n        /* \"#utility.yul\":1762:1771   */\n      dup4\n        /* \"#utility.yul\":1758:1775   */\n      add\n        /* \"#utility.yul\":1749:1755   */\n      dup5\n        /* \"#utility.yul\":1707:1776   */\n      tag_41\n      jump\t// in\n    tag_69:\n        /* \"#utility.yul\":1565:1783   */\n      swap3\n      swap2\n      pop\n      pop\n      jump\t// out\n        /* \"#utility.yul\":1789:1915   */\n    tag_42:\n        /* \"#utility.yul\":1826:1833   */\n      0x00\n        /* \"#utility.yul\":1866:1908   */\n      0xffffffffffffffffffffffffffffffffffffffff\n        /* \"#utility.yul\":1859:1864   */\n      dup3\n        /* \"#utility.yul\":1855:1909   */\n      and\n        /* \"#utility.yul\":1844:1909   */\n      swap1\n      pop\n        /* \"#utility.yul\":1789:1915   */\n      swap2\n      swap1\n      pop\n      jump\t// out\n        /* \"#utility.yul\":1921:2017   */\n    tag_43:\n        /* \"#utility.yul\":1958:1965   */\n      0x00\n        /* \"#utility.yul\":1987:2011   */\n      tag_72\n        /* \"#utility.yul\":2005:2010   */\n      dup3\n        /* \"#utility.yul\":1987:2011   */\n      tag_42\n      jump\t// in\n    tag_72:\n        /* \"#utility.yul\":1976:2011   */\n      swap1\n      pop\n        /* \"#utility.yul\":1921:2017   */\n      swap2\n      swap1\n      pop\n      jump\t// out\n        /* \"#utility.yul\":2023:2141   */\n    tag_44:\n        /* \"#utility.yul\":2110:2134   */\n      tag_74\n        /* \"#utility.yul\":2128:2133   */\n      dup2\n        /* \"#utility.yul\":2110:2134   */\n      tag_43\n      jump\t// in\n    tag_74:\n        /* \"#utility.yul\":2105:2108   */\n      dup3\n        /* \"#utility.yul\":2098:2135   */\n      mstore\n        /* \"#utility.yul\":2023:2141   */\n      pop\n      pop\n      jump\t// out\n        /* \"#utility.yul\":2147:2369   */\n    tag_19:\n        /* \"#utility.yul\":2240:2244   */\n      0x00\n        /* \"#utility.yul\":2278:2280   */\n      0x20\n        /* \"#utility.yul\":2267:2276   */\n      dup3\n        /* \"#utility.yul\":2263:2281   */\n      add\n        /* \"#utility.yul\":2255:2281   */\n      swap1\n      pop\n        /* \"#utility.yul\":2291:2362   */\n      tag_76\n        /* \"#utility.yul\":2359:2360   */\n      0x00\n        /* \"#utility.yul\":2348:2357   */\n      dup4\n        /* \"#utility.yul\":2344:2361   */\n      add\n        /* \"#utility.yul\":2335:2341   */\n      dup5\n        /* \"#utility.yul\":2291:2362   */\n      tag_44\n      jump\t// in\n    tag_76:\n        /* \"#utility.yul\":2147:2369   */\n      swap3\n      swap2\n      pop\n      pop\n      jump\t// out\n        /* \"#utility.yul\":2375:2464   */\n    tag_45:\n        /* \"#utility.yul\":2409:2416   */\n      0x00\n        /* \"#utility.yul\":2452:2457   */\n      dup2\n        /* \"#utility.yul\":2449:2450   */\n      0x00\n        /* \"#utility.yul\":2438:2458   */\n      signextend\n        /* \"#utility.yul\":2427:2458   */\n      swap1\n      pop\n        /* \"#utility.yul\":2375:2464   */\n      swap2\n      swap1\n      pop\n      jump\t// out\n        /* \"#utility.yul\":2470:2579   */\n    tag_46:\n        /* \"#utility.yul\":2551:2572   */\n      tag_79\n        /* \"#utility.yul\":2566:2571   */\n      dup2\n        /* \"#utility.yul\":2551:2572   */\n      tag_45\n      jump\t// in\n    tag_79:\n        /* \"#utility.yul\":2546:2549   */\n      dup3\n        /* \"#utility.yul\":2539:2573   */\n      mstore\n        /* \"#utility.yul\":2470:2579   */\n      pop\n      pop\n      jump\t// out\n        /* \"#utility.yul\":2585:2795   */\n    tag_23:\n        /* \"#utility.yul\":2672:2676   */\n      0x00\n        /* \"#utility.yul\":2710:2712   */\n      0x20\n        /* \"#utility.yul\":2699:2708   */\n      dup3\n        /* \"#utility.yul\":2695:2713   */\n      add\n        /* \"#utility.yul\":2687:2713   */\n      swap1\n      pop\n        /* \"#utility.yul\":2723:2788   */\n      tag_81\n        /* \"#utility.yul\":2785:2786   */\n      0x00\n        /* \"#utility.yul\":2774:2783   */\n      dup4\n        /* \"#utility.yul\":2770:2787   */\n      add\n        /* \"#utility.yul\":2761:2767   */\n      dup5\n        /* \"#utility.yul\":2723:2788   */\n      tag_46\n      jump\t// in\n    tag_81:\n        /* \"#utility.yul\":2585:2795   */\n      swap3\n      swap2\n      pop\n      pop\n      jump\t// out\n        /* \"#utility.yul\":2801:2887   */\n    tag_47:\n        /* \"#utility.yul\":2836:2843   */\n      0x00\n        /* \"#utility.yul\":2876:2880   */\n      0xff\n        /* \"#utility.yul\":2869:2874   */\n      dup3\n        /* \"#utility.yul\":2865:2881   */\n      and\n        /* \"#utility.yul\":2854:2881   */\n      swap1\n      pop\n        /* \"#utility.yul\":2801:2887   */\n      swap2\n      swap1\n      pop\n      jump\t// out\n        /* \"#utility.yul\":2893:3005   */\n    tag_48:\n        /* \"#utility.yul\":2976:2998   */\n      tag_84\n        /* \"#utility.yul\":2992:2997   */\n      dup2\n        /* \"#utility.yul\":2976:2998   */\n      tag_47\n      jump\t// in\n    tag_84:\n        /* \"#utility.yul\":2971:2974   */\n      dup3\n        /* \"#utility.yul\":2964:2999   */\n      mstore\n        /* \"#utility.yul\":2893:3005   */\n      pop\n      pop\n      jump\t// out\n        /* \"#utility.yul\":3011:3225   */\n    tag_27:\n        /* \"#utility.yul\":3100:3104   */\n      0x00\n        /* \"#utility.yul\":3138:3140   */\n      0x20\n        /* \"#utility.yul\":3127:3136   */\n      dup3\n        /* \"#utility.yul\":3123:3141   */\n      add\n        /* \"#utility.yul\":3115:3141   */\n      swap1\n      pop\n        /* \"#utility.yul\":3151:3218   */\n      tag_86\n        /* \"#utility.yul\":3215:3216   */\n      0x00\n        /* \"#utility.yul\":3204:3213   */\n      dup4\n        /* \"#utility.yul\":3200:3217   */\n      add\n        /* \"#utility.yul\":3191:3197   */\n      dup5\n        /* \"#utility.yul\":3151:3218   */\n      tag_48\n      jump\t// in\n    tag_86:\n        /* \"#utility.yul\":3011:3225   */\n      swap3\n      swap2\n      pop\n      pop\n      jump\t// out\n        /* \"#utility.yul\":3231:3411   */\n    tag_49:\n        /* \"#utility.yul\":3279:3356   */\n      0x4e487b7100000000000000000000000000000000000000000000000000000000\n        /* \"#utility.yul\":3276:3277   */\n      0x00\n        /* \"#utility.yul\":3269:3357   */\n      mstore\n        /* \"#utility.yul\":3376:3380   */\n      0x22\n        /* \"#utility.yul\":3373:3374   */\n      0x04\n        /* \"#utility.yul\":3366:3381   */\n      mstore\n        /* \"#utility.yul\":3400:3404   */\n      0x24\n        /* \"#utility.yul\":3397:3398   */\n      0x00\n        /* \"#utility.yul\":3390:3405   */\n      revert\n        /* \"#utility.yul\":3417:3737   */\n    tag_30:\n        /* \"#utility.yul\":3461:3467   */\n      0x00\n        /* \"#utility.yul\":3498:3499   */\n      0x02\n        /* \"#utility.yul\":3492:3496   */\n      dup3\n        /* \"#utility.yul\":3488:3500   */\n      div\n        /* \"#utility.yul\":3478:3500   */\n      swap1\n      pop\n        /* \"#utility.yul\":3545:3546   */\n      0x01\n        /* \"#utility.yul\":3539:3543   */\n      dup3\n        /* \"#utility.yul\":3535:3547   */\n      and\n        /* \"#utility.yul\":3566:3584   */\n      dup1\n        /* \"#utility.yul\":3556:3637   */\n      tag_89\n      jumpi\n        /* \"#utility.yul\":3622:3626   */\n      0x7f\n        /* \"#utility.yul\":3614:3620   */\n      dup3\n        /* \"#utility.yul\":3610:3627   */\n      and\n        /* \"#utility.yul\":3600:3627   */\n      swap2\n      pop\n        /* \"#utility.yul\":3556:3637   */\n    tag_89:\n        /* \"#utility.yul\":3684:3686   */\n      0x20\n        /* \"#utility.yul\":3676:3682   */\n      dup3\n        /* \"#utility.yul\":3673:3687   */\n      lt\n        /* \"#utility.yul\":3653:3671   */\n      dup2\n        /* \"#utility.yul\":3650:3688   */\n      sub\n        /* \"#utility.yul\":3647:3731   */\n      tag_90\n      jumpi\n        /* \"#utility.yul\":3703:3721   */\n      tag_91\n      tag_49\n      jump\t// in\n    tag_91:\n        /* \"#utility.yul\":3647:3731   */\n    tag_90:\n        /* \"#utility.yul\":3468:3737   */\n      pop\n        /* \"#utility.yul\":3417:3737   */\n      swap2\n      swap1\n      pop\n      jump\t// out\n\n    auxdata: 0xa26469706673582212200162a26d8ad1b807600a41e7e94aa3d49a1e955feaddc0e58ae857957c5ddfb664736f6c63430008180033\n}\n",
				"bytecode": {
					"linkReferences": {},
					"object": "60806040526001805f6101000a81548160ff021916908360ff160217905550607b6001806101000a81548161ffff021916908361ffff1602179055507fffffffffffffffffffffffffffffffffffffffffffffffffffffffffffffffff600160036101000a81548160ff02191690835f0b60ff16021790555073014ed7b4735f042decd0167d9c30eec780ae0d3b600160046101000a81548173ffffffffffffffffffffffffffffffffffffffff021916908373ffffffffffffffffffffffffffffffffffffffff160217905550348015620000d9575f80fd5b5060405162000b0338038062000b038339818101604052810190620000ff9190620002bd565b80604051602001620001129190620003a3565b6040516020818303038152906040525f908162000130919062000606565b5050620006ea565b5f604051905090565b5f80fd5b5f80fd5b5f80fd5b5f80fd5b5f601f19601f8301169050919050565b7f4e487b71000000000000000000000000000000000000000000000000000000005f52604160045260245ffd5b620001998262000151565b810181811067ffffffffffffffff82111715620001bb57620001ba62000161565b5b80604052505050565b5f620001cf62000138565b9050620001dd82826200018e565b919050565b5f67ffffffffffffffff821115620001ff57620001fe62000161565b5b6200020a8262000151565b9050602081019050919050565b5f5b838110156200023657808201518184015260208101905062000219565b5f8484015250505050565b5f620002576200025184620001e2565b620001c4565b9050828152602081018484840111156200027657620002756200014d565b5b6200028384828562000217565b509392505050565b5f82601f830112620002a257620002a162000149565b5b8151620002b484826020860162000241565b91505092915050565b5f60208284031215620002d557620002d462000141565b5b5f82015167ffffffffffffffff811115620002f557620002f462000145565b5b62000303848285016200028b565b91505092915050565b7f4d69206e6f6d6272652065733a00000000000000000000000000000000000000815250565b5f81905092915050565b50565b5f6200034c5f8362000332565b915062000359826200033c565b5f82019050919050565b5f81519050919050565b5f620003798262000363565b62000385818562000332565b93506200039781856020860162000217565b80840191505092915050565b5f620003af826200030c565b600d82019150620003c0826200033f565b9150620003ce82846200036d565b915081905092915050565b7f4e487b71000000000000000000000000000000000000000000000000000000005f52602260045260245ffd5b5f60028204905060018216806200041e57607f821691505b602082108103620004345762000433620003d9565b5b50919050565b5f819050815f5260205f209050919050565b5f6020601f8301049050919050565b5f82821b905092915050565b5f60088302620004987fffffffffffffffffffffffffffffffffffffffffffffffffffffffffffffffff826200045b565b620004a486836200045b565b95508019841693508086168417925050509392505050565b5f819050919050565b5f819050919050565b5f620004ee620004e8620004e284620004bc565b620004c5565b620004bc565b9050919050565b5f819050919050565b6200050983620004ce565b620005216200051882620004f5565b84845462000467565b825550505050565b5f90565b6200053762000529565b62000544818484620004fe565b505050565b5b818110156200056b576200055f5f826200052d565b6001810190506200054a565b5050565b601f821115620005ba5762000584816200043a565b6200058f846200044c565b810160208510156200059f578190505b620005b7620005ae856200044c565b83018262000549565b50505b505050565b5f82821c905092915050565b5f620005dc5f1984600802620005bf565b1980831691505092915050565b5f620005f68383620005cb565b9150826002028217905092915050565b620006118262000363565b67ffffffffffffffff8111156200062d576200062c62000161565b5b62000639825462000406565b620006468282856200056f565b5f60209050601f8311600181146200067c575f841562000667578287015190505b620006738582620005e9565b865550620006e2565b601f1984166200068c866200043a565b5f5b82811015620006b5578489015182556001820191506020850194506020810190506200068e565b86831015620006d55784890151620006d1601f891682620005cb565b8355505b6001600288020188555050505b505050505050565b61040b80620006f85f395ff3fe608060405234801561000f575f80fd5b5060043610610055575f3560e01c806317d7de7c1461005957806322ea39cc14610077578063b71d2cec14610095578063df77a62e146100b3578063f950fc6d146100d1575b5f80fd5b6100616100ef565b60405161006e9190610264565b60405180910390f35b61007f61017e565b60405161008c91906102a0565b60405180910390f35b61009d610190565b6040516100aa91906102f8565b60405180910390f35b6100bb6101b6565b6040516100c8919061032b565b60405180910390f35b6100d96101c8565b6040516100e6919061035f565b60405180910390f35b60605f80546100fd906103a5565b80601f0160208091040260200160405190810160405280929190818152602001828054610129906103a5565b80156101745780601f1061014b57610100808354040283529160200191610174565b820191905f5260205f20905b81548152906001019060200180831161015757829003601f168201915b5050505050905090565b60018054906101000a900461ffff1681565b600160049054906101000a900473ffffffffffffffffffffffffffffffffffffffff1681565b600160039054906101000a90045f0b81565b60015f9054906101000a900460ff1681565b5f81519050919050565b5f82825260208201905092915050565b5f5b838110156102115780820151818401526020810190506101f6565b5f8484015250505050565b5f601f19601f8301169050919050565b5f610236826101da565b61024081856101e4565b93506102508185602086016101f4565b6102598161021c565b840191505092915050565b5f6020820190508181035f83015261027c818461022c565b905092915050565b5f61ffff82169050919050565b61029a81610284565b82525050565b5f6020820190506102b35f830184610291565b92915050565b5f73ffffffffffffffffffffffffffffffffffffffff82169050919050565b5f6102e2826102b9565b9050919050565b6102f2816102d8565b82525050565b5f60208201905061030b5f8301846102e9565b92915050565b5f815f0b9050919050565b61032581610311565b82525050565b5f60208201905061033e5f83018461031c565b92915050565b5f60ff82169050919050565b61035981610344565b82525050565b5f6020820190506103725f830184610350565b92915050565b7f4e487b71000000000000000000000000000000000000000000000000000000005f52602260045260245ffd5b5f60028204905060018216806103bc57607f821691505b6020821081036103cf576103ce610378565b5b5091905056fea26469706673582212200162a26d8ad1b807600a41e7e94aa3d49a1e955feaddc0e58ae857957c5ddfb664736f6c63430008180033",
					"opcodes": "PUSH1 0x80 PUSH1 0x40 MSTORE PUSH1 0x1 DUP1 PUSH0 PUSH2 0x100 EXP DUP2 SLOAD DUP2 PUSH1 0xFF MUL NOT AND SWAP1 DUP4 PUSH1 0xFF AND MUL OR SWAP1 SSTORE POP PUSH1 0x7B PUSH1 0x1 DUP1 PUSH2 0x100 EXP DUP2 SLOAD DUP2 PUSH2 0xFFFF MUL NOT AND SWAP1 DUP4 PUSH2 0xFFFF AND MUL OR SWAP1 SSTORE POP PUSH32 0xFFFFFFFFFFFFFFFFFFFFFFFFFFFFFFFFFFFFFFFFFFFFFFFFFFFFFFFFFFFFFFFF PUSH1 0x1 PUSH1 0x3 PUSH2 0x100 EXP DUP2 SLOAD DUP2 PUSH1 0xFF MUL NOT AND SWAP1 DUP4 PUSH0 SIGNEXTEND PUSH1 0xFF AND MUL OR SWAP1 SSTORE POP PUSH20 0x14ED7B4735F042DECD0167D9C30EEC780AE0D3B PUSH1 0x1 PUSH1 0x4 PUSH2 0x100 EXP DUP2 SLOAD DUP2 PUSH20 0xFFFFFFFFFFFFFFFFFFFFFFFFFFFFFFFFFFFFFFFF MUL NOT AND SWAP1 DUP4 PUSH20 0xFFFFFFFFFFFFFFFFFFFFFFFFFFFFFFFFFFFFFFFF AND MUL OR SWAP1 SSTORE POP CALLVALUE DUP1 ISZERO PUSH3 0xD9 JUMPI PUSH0 DUP1 REVERT JUMPDEST POP PUSH1 0x40 MLOAD PUSH3 0xB03 CODESIZE SUB DUP1 PUSH3 0xB03 DUP4 CODECOPY DUP2 DUP2 ADD PUSH1 0x40 MSTORE DUP2 ADD SWAP1 PUSH3 0xFF SWAP2 SWAP1 PUSH3 0x2BD JUMP JUMPDEST DUP1 PUSH1 0x40 MLOAD PUSH1 0x20 ADD PUSH3 0x112 SWAP2 SWAP1 PUSH3 0x3A3 JUMP JUMPDEST PUSH1 0x40 MLOAD PUSH1 0x20 DUP2 DUP4 SUB SUB DUP2 MSTORE SWAP1 PUSH1 0x40 MSTORE PUSH0 SWAP1 DUP2 PUSH3 0x130 SWAP2 SWAP1 PUSH3 0x606 JUMP JUMPDEST POP POP PUSH3 0x6EA JUMP JUMPDEST PUSH0 PUSH1 0x40 MLOAD SWAP1 POP SWAP1 JUMP JUMPDEST PUSH0 DUP1 REVERT JUMPDEST PUSH0 DUP1 REVERT JUMPDEST PUSH0 DUP1 REVERT JUMPDEST PUSH0 DUP1 REVERT JUMPDEST PUSH0 PUSH1 0x1F NOT PUSH1 0x1F DUP4 ADD AND SWAP1 POP SWAP2 SWAP1 POP JUMP JUMPDEST PUSH32 0x4E487B7100000000000000000000000000000000000000000000000000000000 PUSH0 MSTORE PUSH1 0x41 PUSH1 0x4 MSTORE PUSH1 0x24 PUSH0 REVERT JUMPDEST PUSH3 0x199 DUP3 PUSH3 0x151 JUMP JUMPDEST DUP2 ADD DUP2 DUP2 LT PUSH8 0xFFFFFFFFFFFFFFFF DUP3 GT OR ISZERO PUSH3 0x1BB JUMPI PUSH3 0x1BA PUSH3 0x161 JUMP JUMPDEST JUMPDEST DUP1 PUSH1 0x40 MSTORE POP POP POP JUMP JUMPDEST PUSH0 PUSH3 0x1CF PUSH3 0x138 JUMP JUMPDEST SWAP1 POP PUSH3 0x1DD DUP3 DUP3 PUSH3 0x18E JUMP JUMPDEST SWAP2 SWAP1 POP JUMP JUMPDEST PUSH0 PUSH8 0xFFFFFFFFFFFFFFFF DUP3 GT ISZERO PUSH3 0x1FF JUMPI PUSH3 0x1FE PUSH3 0x161 JUMP JUMPDEST JUMPDEST PUSH3 0x20A DUP3 PUSH3 0x151 JUMP JUMPDEST SWAP1 POP PUSH1 0x20 DUP2 ADD SWAP1 POP SWAP2 SWAP1 POP JUMP JUMPDEST PUSH0 JUMPDEST DUP4 DUP2 LT ISZERO PUSH3 0x236 JUMPI DUP1 DUP3 ADD MLOAD DUP2 DUP5 ADD MSTORE PUSH1 0x20 DUP2 ADD SWAP1 POP PUSH3 0x219 JUMP JUMPDEST PUSH0 DUP5 DUP5 ADD MSTORE POP POP POP POP JUMP JUMPDEST PUSH0 PUSH3 0x257 PUSH3 0x251 DUP5 PUSH3 0x1E2 JUMP JUMPDEST PUSH3 0x1C4 JUMP JUMPDEST SWAP1 POP DUP3 DUP2 MSTORE PUSH1 0x20 DUP2 ADD DUP5 DUP5 DUP5 ADD GT ISZERO PUSH3 0x276 JUMPI PUSH3 0x275 PUSH3 0x14D JUMP JUMPDEST JUMPDEST PUSH3 0x283 DUP5 DUP3 DUP6 PUSH3 0x217 JUMP JUMPDEST POP SWAP4 SWAP3 POP POP POP JUMP JUMPDEST PUSH0 DUP3 PUSH1 0x1F DUP4 ADD SLT PUSH3 0x2A2 JUMPI PUSH3 0x2A1 PUSH3 0x149 JUMP JUMPDEST JUMPDEST DUP2 MLOAD PUSH3 0x2B4 DUP5 DUP3 PUSH1 0x20 DUP7 ADD PUSH3 0x241 JUMP JUMPDEST SWAP2 POP POP SWAP3 SWAP2 POP POP JUMP JUMPDEST PUSH0 PUSH1 0x20 DUP3 DUP5 SUB SLT ISZERO PUSH3 0x2D5 JUMPI PUSH3 0x2D4 PUSH3 0x141 JUMP JUMPDEST JUMPDEST PUSH0 DUP3 ADD MLOAD PUSH8 0xFFFFFFFFFFFFFFFF DUP2 GT ISZERO PUSH3 0x2F5 JUMPI PUSH3 0x2F4 PUSH3 0x145 JUMP JUMPDEST JUMPDEST PUSH3 0x303 DUP5 DUP3 DUP6 ADD PUSH3 0x28B JUMP JUMPDEST SWAP2 POP POP SWAP3 SWAP2 POP POP JUMP JUMPDEST PUSH32 0x4D69206E6F6D6272652065733A00000000000000000000000000000000000000 DUP2 MSTORE POP JUMP JUMPDEST PUSH0 DUP2 SWAP1 POP SWAP3 SWAP2 POP POP JUMP JUMPDEST POP JUMP JUMPDEST PUSH0 PUSH3 0x34C PUSH0 DUP4 PUSH3 0x332 JUMP JUMPDEST SWAP2 POP PUSH3 0x359 DUP3 PUSH3 0x33C JUMP JUMPDEST PUSH0 DUP3 ADD SWAP1 POP SWAP2 SWAP1 POP JUMP JUMPDEST PUSH0 DUP2 MLOAD SWAP1 POP SWAP2 SWAP1 POP JUMP JUMPDEST PUSH0 PUSH3 0x379 DUP3 PUSH3 0x363 JUMP JUMPDEST PUSH3 0x385 DUP2 DUP6 PUSH3 0x332 JUMP JUMPDEST SWAP4 POP PUSH3 0x397 DUP2 DUP6 PUSH1 0x20 DUP7 ADD PUSH3 0x217 JUMP JUMPDEST DUP1 DUP5 ADD SWAP2 POP POP SWAP3 SWAP2 POP POP JUMP JUMPDEST PUSH0 PUSH3 0x3AF DUP3 PUSH3 0x30C JUMP JUMPDEST PUSH1 0xD DUP3 ADD SWAP2 POP PUSH3 0x3C0 DUP3 PUSH3 0x33F JUMP JUMPDEST SWAP2 POP PUSH3 0x3CE DUP3 DUP5 PUSH3 0x36D JUMP JUMPDEST SWAP2 POP DUP2 SWAP1 POP SWAP3 SWAP2 POP POP JUMP JUMPDEST PUSH32 0x4E487B7100000000000000000000000000000000000000000000000000000000 PUSH0 MSTORE PUSH1 0x22 PUSH1 0x4 MSTORE PUSH1 0x24 PUSH0 REVERT JUMPDEST PUSH0 PUSH1 0x2 DUP3 DIV SWAP1 POP PUSH1 0x1 DUP3 AND DUP1 PUSH3 0x41E JUMPI PUSH1 0x7F DUP3 AND SWAP2 POP JUMPDEST PUSH1 0x20 DUP3 LT DUP2 SUB PUSH3 0x434 JUMPI PUSH3 0x433 PUSH3 0x3D9 JUMP JUMPDEST JUMPDEST POP SWAP2 SWAP1 POP JUMP JUMPDEST PUSH0 DUP2 SWAP1 POP DUP2 PUSH0 MSTORE PUSH1 0x20 PUSH0 KECCAK256 SWAP1 POP SWAP2 SWAP1 POP JUMP JUMPDEST PUSH0 PUSH1 0x20 PUSH1 0x1F DUP4 ADD DIV SWAP1 POP SWAP2 SWAP1 POP JUMP JUMPDEST PUSH0 DUP3 DUP3 SHL SWAP1 POP SWAP3 SWAP2 POP POP JUMP JUMPDEST PUSH0 PUSH1 0x8 DUP4 MUL PUSH3 0x498 PUSH32 0xFFFFFFFFFFFFFFFFFFFFFFFFFFFFFFFFFFFFFFFFFFFFFFFFFFFFFFFFFFFFFFFF DUP3 PUSH3 0x45B JUMP JUMPDEST PUSH3 0x4A4 DUP7 DUP4 PUSH3 0x45B JUMP JUMPDEST SWAP6 POP DUP1 NOT DUP5 AND SWAP4 POP DUP1 DUP7 AND DUP5 OR SWAP3 POP POP POP SWAP4 SWAP3 POP POP POP JUMP JUMPDEST PUSH0 DUP2 SWAP1 POP SWAP2 SWAP1 POP JUMP JUMPDEST PUSH0 DUP2 SWAP1 POP SWAP2 SWAP1 POP JUMP JUMPDEST PUSH0 PUSH3 0x4EE PUSH3 0x4E8 PUSH3 0x4E2 DUP5 PUSH3 0x4BC JUMP JUMPDEST PUSH3 0x4C5 JUMP JUMPDEST PUSH3 0x4BC JUMP JUMPDEST SWAP1 POP SWAP2 SWAP1 POP JUMP JUMPDEST PUSH0 DUP2 SWAP1 POP SWAP2 SWAP1 POP JUMP JUMPDEST PUSH3 0x509 DUP4 PUSH3 0x4CE JUMP JUMPDEST PUSH3 0x521 PUSH3 0x518 DUP3 PUSH3 0x4F5 JUMP JUMPDEST DUP5 DUP5 SLOAD PUSH3 0x467 JUMP JUMPDEST DUP3 SSTORE POP POP POP POP JUMP JUMPDEST PUSH0 SWAP1 JUMP JUMPDEST PUSH3 0x537 PUSH3 0x529 JUMP JUMPDEST PUSH3 0x544 DUP2 DUP5 DUP5 PUSH3 0x4FE JUMP JUMPDEST POP POP POP JUMP JUMPDEST JUMPDEST DUP2 DUP2 LT ISZERO PUSH3 0x56B JUMPI PUSH3 0x55F PUSH0 DUP3 PUSH3 0x52D JUMP JUMPDEST PUSH1 0x1 DUP2 ADD SWAP1 POP PUSH3 0x54A JUMP JUMPDEST POP POP JUMP JUMPDEST PUSH1 0x1F DUP3 GT ISZERO PUSH3 0x5BA JUMPI PUSH3 0x584 DUP2 PUSH3 0x43A JUMP JUMPDEST PUSH3 0x58F DUP5 PUSH3 0x44C JUMP JUMPDEST DUP2 ADD PUSH1 0x20 DUP6 LT ISZERO PUSH3 0x59F JUMPI DUP2 SWAP1 POP JUMPDEST PUSH3 0x5B7 PUSH3 0x5AE DUP6 PUSH3 0x44C JUMP JUMPDEST DUP4 ADD DUP3 PUSH3 0x549 JUMP JUMPDEST POP POP JUMPDEST POP POP POP JUMP JUMPDEST PUSH0 DUP3 DUP3 SHR SWAP1 POP SWAP3 SWAP2 POP POP JUMP JUMPDEST PUSH0 PUSH3 0x5DC PUSH0 NOT DUP5 PUSH1 0x8 MUL PUSH3 0x5BF JUMP JUMPDEST NOT DUP1 DUP4 AND SWAP2 POP POP SWAP3 SWAP2 POP POP JUMP JUMPDEST PUSH0 PUSH3 0x5F6 DUP4 DUP4 PUSH3 0x5CB JUMP JUMPDEST SWAP2 POP DUP3 PUSH1 0x2 MUL DUP3 OR SWAP1 POP SWAP3 SWAP2 POP POP JUMP JUMPDEST PUSH3 0x611 DUP3 PUSH3 0x363 JUMP JUMPDEST PUSH8 0xFFFFFFFFFFFFFFFF DUP2 GT ISZERO PUSH3 0x62D JUMPI PUSH3 0x62C PUSH3 0x161 JUMP JUMPDEST JUMPDEST PUSH3 0x639 DUP3 SLOAD PUSH3 0x406 JUMP JUMPDEST PUSH3 0x646 DUP3 DUP3 DUP6 PUSH3 0x56F JUMP JUMPDEST PUSH0 PUSH1 0x20 SWAP1 POP PUSH1 0x1F DUP4 GT PUSH1 0x1 DUP2 EQ PUSH3 0x67C JUMPI PUSH0 DUP5 ISZERO PUSH3 0x667 JUMPI DUP3 DUP8 ADD MLOAD SWAP1 POP JUMPDEST PUSH3 0x673 DUP6 DUP3 PUSH3 0x5E9 JUMP JUMPDEST DUP7 SSTORE POP PUSH3 0x6E2 JUMP JUMPDEST PUSH1 0x1F NOT DUP5 AND PUSH3 0x68C DUP7 PUSH3 0x43A JUMP JUMPDEST PUSH0 JUMPDEST DUP3 DUP2 LT ISZERO PUSH3 0x6B5 JUMPI DUP5 DUP10 ADD MLOAD DUP3 SSTORE PUSH1 0x1 DUP3 ADD SWAP2 POP PUSH1 0x20 DUP6 ADD SWAP5 POP PUSH1 0x20 DUP2 ADD SWAP1 POP PUSH3 0x68E JUMP JUMPDEST DUP7 DUP4 LT ISZERO PUSH3 0x6D5 JUMPI DUP5 DUP10 ADD MLOAD PUSH3 0x6D1 PUSH1 0x1F DUP10 AND DUP3 PUSH3 0x5CB JUMP JUMPDEST DUP4 SSTORE POP JUMPDEST PUSH1 0x1 PUSH1 0x2 DUP9 MUL ADD DUP9 SSTORE POP POP POP JUMPDEST POP POP POP POP POP POP JUMP JUMPDEST PUSH2 0x40B DUP1 PUSH3 0x6F8 PUSH0 CODECOPY PUSH0 RETURN INVALID PUSH1 0x80 PUSH1 0x40 MSTORE CALLVALUE DUP1 ISZERO PUSH2 0xF JUMPI PUSH0 DUP1 REVERT JUMPDEST POP PUSH1 0x4 CALLDATASIZE LT PUSH2 0x55 JUMPI PUSH0 CALLDATALOAD PUSH1 0xE0 SHR DUP1 PUSH4 0x17D7DE7C EQ PUSH2 0x59 JUMPI DUP1 PUSH4 0x22EA39CC EQ PUSH2 0x77 JUMPI DUP1 PUSH4 0xB71D2CEC EQ PUSH2 0x95 JUMPI DUP1 PUSH4 0xDF77A62E EQ PUSH2 0xB3 JUMPI DUP1 PUSH4 0xF950FC6D EQ PUSH2 0xD1 JUMPI JUMPDEST PUSH0 DUP1 REVERT JUMPDEST PUSH2 0x61 PUSH2 0xEF JUMP JUMPDEST PUSH1 0x40 MLOAD PUSH2 0x6E SWAP2 SWAP1 PUSH2 0x264 JUMP JUMPDEST PUSH1 0x40 MLOAD DUP1 SWAP2 SUB SWAP1 RETURN JUMPDEST PUSH2 0x7F PUSH2 0x17E JUMP JUMPDEST PUSH1 0x40 MLOAD PUSH2 0x8C SWAP2 SWAP1 PUSH2 0x2A0 JUMP JUMPDEST PUSH1 0x40 MLOAD DUP1 SWAP2 SUB SWAP1 RETURN JUMPDEST PUSH2 0x9D PUSH2 0x190 JUMP JUMPDEST PUSH1 0x40 MLOAD PUSH2 0xAA SWAP2 SWAP1 PUSH2 0x2F8 JUMP JUMPDEST PUSH1 0x40 MLOAD DUP1 SWAP2 SUB SWAP1 RETURN JUMPDEST PUSH2 0xBB PUSH2 0x1B6 JUMP JUMPDEST PUSH1 0x40 MLOAD PUSH2 0xC8 SWAP2 SWAP1 PUSH2 0x32B JUMP JUMPDEST PUSH1 0x40 MLOAD DUP1 SWAP2 SUB SWAP1 RETURN JUMPDEST PUSH2 0xD9 PUSH2 0x1C8 JUMP JUMPDEST PUSH1 0x40 MLOAD PUSH2 0xE6 SWAP2 SWAP1 PUSH2 0x35F JUMP JUMPDEST PUSH1 0x40 MLOAD DUP1 SWAP2 SUB SWAP1 RETURN JUMPDEST PUSH1 0x60 PUSH0 DUP1 SLOAD PUSH2 0xFD SWAP1 PUSH2 0x3A5 JUMP JUMPDEST DUP1 PUSH1 0x1F ADD PUSH1 0x20 DUP1 SWAP2 DIV MUL PUSH1 0x20 ADD PUSH1 0x40 MLOAD SWAP1 DUP2 ADD PUSH1 0x40 MSTORE DUP1 SWAP3 SWAP2 SWAP1 DUP2 DUP2 MSTORE PUSH1 0x20 ADD DUP3 DUP1 SLOAD PUSH2 0x129 SWAP1 PUSH2 0x3A5 JUMP JUMPDEST DUP1 ISZERO PUSH2 0x174 JUMPI DUP1 PUSH1 0x1F LT PUSH2 0x14B JUMPI PUSH2 0x100 DUP1 DUP4 SLOAD DIV MUL DUP4 MSTORE SWAP2 PUSH1 0x20 ADD SWAP2 PUSH2 0x174 JUMP JUMPDEST DUP3 ADD SWAP2 SWAP1 PUSH0 MSTORE PUSH1 0x20 PUSH0 KECCAK256 SWAP1 JUMPDEST DUP2 SLOAD DUP2 MSTORE SWAP1 PUSH1 0x1 ADD SWAP1 PUSH1 0x20 ADD DUP1 DUP4 GT PUSH2 0x157 JUMPI DUP3 SWAP1 SUB PUSH1 0x1F AND DUP3 ADD SWAP2 JUMPDEST POP POP POP POP POP SWAP1 POP SWAP1 JUMP JUMPDEST PUSH1 0x1 DUP1 SLOAD SWAP1 PUSH2 0x100 EXP SWAP1 DIV PUSH2 0xFFFF AND DUP2 JUMP JUMPDEST PUSH1 0x1 PUSH1 0x4 SWAP1 SLOAD SWAP1 PUSH2 0x100 EXP SWAP1 DIV PUSH20 0xFFFFFFFFFFFFFFFFFFFFFFFFFFFFFFFFFFFFFFFF AND DUP2 JUMP JUMPDEST PUSH1 0x1 PUSH1 0x3 SWAP1 SLOAD SWAP1 PUSH2 0x100 EXP SWAP1 DIV PUSH0 SIGNEXTEND DUP2 JUMP JUMPDEST PUSH1 0x1 PUSH0 SWAP1 SLOAD SWAP1 PUSH2 0x100 EXP SWAP1 DIV PUSH1 0xFF AND DUP2 JUMP JUMPDEST PUSH0 DUP2 MLOAD SWAP1 POP SWAP2 SWAP1 POP JUMP JUMPDEST PUSH0 DUP3 DUP3 MSTORE PUSH1 0x20 DUP3 ADD SWAP1 POP SWAP3 SWAP2 POP POP JUMP JUMPDEST PUSH0 JUMPDEST DUP4 DUP2 LT ISZERO PUSH2 0x211 JUMPI DUP1 DUP3 ADD MLOAD DUP2 DUP5 ADD MSTORE PUSH1 0x20 DUP2 ADD SWAP1 POP PUSH2 0x1F6 JUMP JUMPDEST PUSH0 DUP5 DUP5 ADD MSTORE POP POP POP POP JUMP JUMPDEST PUSH0 PUSH1 0x1F NOT PUSH1 0x1F DUP4 ADD AND SWAP1 POP SWAP2 SWAP1 POP JUMP JUMPDEST PUSH0 PUSH2 0x236 DUP3 PUSH2 0x1DA JUMP JUMPDEST PUSH2 0x240 DUP2 DUP6 PUSH2 0x1E4 JUMP JUMPDEST SWAP4 POP PUSH2 0x250 DUP2 DUP6 PUSH1 0x20 DUP7 ADD PUSH2 0x1F4 JUMP JUMPDEST PUSH2 0x259 DUP2 PUSH2 0x21C JUMP JUMPDEST DUP5 ADD SWAP2 POP POP SWAP3 SWAP2 POP POP JUMP JUMPDEST PUSH0 PUSH1 0x20 DUP3 ADD SWAP1 POP DUP2 DUP2 SUB PUSH0 DUP4 ADD MSTORE PUSH2 0x27C DUP2 DUP5 PUSH2 0x22C JUMP JUMPDEST SWAP1 POP SWAP3 SWAP2 POP POP JUMP JUMPDEST PUSH0 PUSH2 0xFFFF DUP3 AND SWAP1 POP SWAP2 SWAP1 POP JUMP JUMPDEST PUSH2 0x29A DUP2 PUSH2 0x284 JUMP JUMPDEST DUP3 MSTORE POP POP JUMP JUMPDEST PUSH0 PUSH1 0x20 DUP3 ADD SWAP1 POP PUSH2 0x2B3 PUSH0 DUP4 ADD DUP5 PUSH2 0x291 JUMP JUMPDEST SWAP3 SWAP2 POP POP JUMP JUMPDEST PUSH0 PUSH20 0xFFFFFFFFFFFFFFFFFFFFFFFFFFFFFFFFFFFFFFFF DUP3 AND SWAP1 POP SWAP2 SWAP1 POP JUMP JUMPDEST PUSH0 PUSH2 0x2E2 DUP3 PUSH2 0x2B9 JUMP JUMPDEST SWAP1 POP SWAP2 SWAP1 POP JUMP JUMPDEST PUSH2 0x2F2 DUP2 PUSH2 0x2D8 JUMP JUMPDEST DUP3 MSTORE POP POP JUMP JUMPDEST PUSH0 PUSH1 0x20 DUP3 ADD SWAP1 POP PUSH2 0x30B PUSH0 DUP4 ADD DUP5 PUSH2 0x2E9 JUMP JUMPDEST SWAP3 SWAP2 POP POP JUMP JUMPDEST PUSH0 DUP2 PUSH0 SIGNEXTEND SWAP1 POP SWAP2 SWAP1 POP JUMP JUMPDEST PUSH2 0x325 DUP2 PUSH2 0x311 JUMP JUMPDEST DUP3 MSTORE POP POP JUMP JUMPDEST PUSH0 PUSH1 0x20 DUP3 ADD SWAP1 POP PUSH2 0x33E PUSH0 DUP4 ADD DUP5 PUSH2 0x31C JUMP JUMPDEST SWAP3 SWAP2 POP POP JUMP JUMPDEST PUSH0 PUSH1 0xFF DUP3 AND SWAP1 POP SWAP2 SWAP1 POP JUMP JUMPDEST PUSH2 0x359 DUP2 PUSH2 0x344 JUMP JUMPDEST DUP3 MSTORE POP POP JUMP JUMPDEST PUSH0 PUSH1 0x20 DUP3 ADD SWAP1 POP PUSH2 0x372 PUSH0 DUP4 ADD DUP5 PUSH2 0x350 JUMP JUMPDEST SWAP3 SWAP2 POP POP JUMP JUMPDEST PUSH32 0x4E487B7100000000000000000000000000000000000000000000000000000000 PUSH0 MSTORE PUSH1 0x22 PUSH1 0x4 MSTORE PUSH1 0x24 PUSH0 REVERT JUMPDEST PUSH0 PUSH1 0x2 DUP3 DIV SWAP1 POP PUSH1 0x1 DUP3 AND DUP1 PUSH2 0x3BC JUMPI PUSH1 0x7F DUP3 AND SWAP2 POP JUMPDEST PUSH1 0x20 DUP3 LT DUP2 SUB PUSH2 0x3CF JUMPI PUSH2 0x3CE PUSH2 0x378 JUMP JUMPDEST JUMPDEST POP SWAP2 SWAP1 POP JUMP INVALID LOG2 PUSH5 0x6970667358 0x22 SLT KECCAK256 ADD PUSH3 0xA26D8A 0xD1 0xB8 SMOD PUSH1 0xA COINBASE 0xE7 0xE9 BLOBBASEFEE LOG3 0xD4 SWAP11 0x1E SWAP6 PUSH0 0xEA 0xDD 0xC0 0xE5 DUP11 0xE8 JUMPI SWAP6 PUSH29 0x5DDFB664736F6C63430008180033000000000000000000000000000000 "
				},
				"gasEstimates": {
					"creation": {
						"codeDepositCost": "207000",
						"executionCost": "infinite",
						"totalCost": "infinite"
					},
					"external": {
						"getName()": "infinite",
						"int_8()": "2563",
						"my_address()": "2581",
						"uint_16()": "2514",
						"uint_8()": "2532"
					}
				},
				"methodIdentifiers": {
					"getName()": "17d7de7c",
					"int_8()": "df77a62e",
					"my_address()": "b71d2cec",
					"uint_16()": "22ea39cc",
					"uint_8()": "f950fc6d"
				}
			},
			"storageLayout": {
				"storage": [
					{
						"astId": 3,
						"contract": "variables_nativas.sol:variables_nativas",
						"label": "fullName",
						"offset": 0,
						"slot": "0",
						"type": "t_string_storage"
					},
					{
						"astId": 30,
						"contract": "variables_nativas.sol:variables_nativas",
						"label": "uint_8",
						"offset": 0,
						"slot": "1",
						"type": "t_uint8"
					},
					{
						"astId": 33,
						"contract": "variables_nativas.sol:variables_nativas",
						"label": "uint_16",
						"offset": 1,
						"slot": "1",
						"type": "t_uint16"
					},
					{
						"astId": 37,
						"contract": "variables_nativas.sol:variables_nativas",
						"label": "int_8",
						"offset": 3,
						"slot": "1",
						"type": "t_int8"
					},
					{
						"astId": 40,
						"contract": "variables_nativas.sol:variables_nativas",
						"label": "my_address",
						"offset": 4,
						"slot": "1",
						"type": "t_address"
					}
				],
				"types": {
					"t_address": {
						"encoding": "inplace",
						"label": "address",
						"numberOfBytes": "20"
					},
					"t_int8": {
						"encoding": "inplace",
						"label": "int8",
						"numberOfBytes": "1"
					},
					"t_string_storage": {
						"encoding": "bytes",
						"label": "string",
						"numberOfBytes": "32"
					},
					"t_uint16": {
						"encoding": "inplace",
						"label": "uint16",
						"numberOfBytes": "2"
					},
					"t_uint8": {
						"encoding": "inplace",
						"label": "uint8",
						"numberOfBytes": "1"
					}
				}
			},
			"userdoc": {
				"kind": "user",
				"methods": {},
				"version": 1
			}
		}
	}
}